{
  "_format": "hh-sol-artifact-1",
  "contractName": "main",
  "sourceName": "src/main.sol",
  "abi": [
    {
      "inputs": [
        {
          "internalType": "address",
          "name": "rofl",
          "type": "address"
        }
      ],
      "stateMutability": "nonpayable",
      "type": "constructor"
    },
    {
      "inputs": [],
      "name": "ReentrancyGuardReentrantCall",
      "type": "error"
    },
    {
      "inputs": [
        {
          "internalType": "address",
          "name": "token",
          "type": "address"
        }
      ],
      "name": "SafeERC20FailedOperation",
      "type": "error"
    },
    {
      "inputs": [
        {
          "internalType": "uint256",
          "name": "in_token",
          "type": "uint256"
        },
        {
          "internalType": "uint256",
          "name": "out_token",
          "type": "uint256"
        },
        {
          "internalType": "address",
          "name": "user",
          "type": "address"
        },
        {
          "internalType": "uint256",
          "name": "campaignId",
          "type": "uint256"
        }
      ],
      "name": "chat",
      "outputs": [],
      "stateMutability": "nonpayable",
      "type": "function"
    },
    {
      "inputs": [
        {
          "internalType": "uint256",
          "name": "campaignId",
          "type": "uint256"
        },
        {
          "internalType": "address",
          "name": "contributer",
          "type": "address"
        },
        {
          "internalType": "uint256",
          "name": "data_token_amount",
          "type": "uint256"
        }
      ],
      "name": "contribute",
      "outputs": [],
      "stateMutability": "nonpayable",
      "type": "function"
    },
    {
      "inputs": [
        {
          "internalType": "string",
          "name": "name",
          "type": "string"
        },
        {
          "internalType": "string",
          "name": "description",
          "type": "string"
        },
        {
          "internalType": "string",
          "name": "vector_db_cid",
          "type": "string"
        },
        {
          "internalType": "address",
          "name": "owner",
          "type": "address"
        },
        {
          "internalType": "enum main.Category",
          "name": "category",
          "type": "uint8"
        },
        {
          "internalType": "uint256",
          "name": "in_token_price",
          "type": "uint256"
        },
        {
          "internalType": "uint256",
          "name": "out_token_price",
          "type": "uint256"
        },
        {
          "internalType": "uint256",
          "name": "initial_data_token",
          "type": "uint256"
        }
      ],
      "name": "createCampaign",
      "outputs": [],
      "stateMutability": "nonpayable",
      "type": "function"
    },
    {
      "inputs": [
        {
          "internalType": "uint256",
          "name": "campaignId",
          "type": "uint256"
        }
      ],
      "name": "getCampaign",
      "outputs": [
        {
          "internalType": "string",
          "name": "",
          "type": "string"
        },
        {
          "internalType": "string",
          "name": "",
          "type": "string"
        },
        {
          "internalType": "address",
          "name": "",
          "type": "address"
        },
        {
          "internalType": "enum main.Category",
          "name": "",
          "type": "uint8"
        },
        {
          "internalType": "string",
          "name": "",
          "type": "string"
        },
        {
          "internalType": "uint256",
          "name": "",
          "type": "uint256"
        },
        {
          "internalType": "uint256",
          "name": "",
          "type": "uint256"
        },
        {
          "internalType": "uint256",
          "name": "",
          "type": "uint256"
        },
        {
          "internalType": "uint256",
          "name": "",
          "type": "uint256"
        }
      ],
      "stateMutability": "view",
      "type": "function"
    },
    {
      "inputs": [
        {
          "internalType": "address",
          "name": "user",
          "type": "address"
        }
      ],
      "name": "getUser",
      "outputs": [
        {
          "internalType": "uint256",
          "name": "",
          "type": "uint256"
        },
        {
          "internalType": "uint256[]",
          "name": "",
          "type": "uint256[]"
        },
        {
          "internalType": "uint256[]",
          "name": "",
          "type": "uint256[]"
        }
      ],
      "stateMutability": "view",
      "type": "function"
    },
    {
      "inputs": [],
      "name": "get_campaigns_length",
      "outputs": [
        {
          "internalType": "uint256",
          "name": "",
          "type": "uint256"
        }
      ],
      "stateMutability": "view",
      "type": "function"
    },
    {
      "inputs": [
        {
          "internalType": "uint256",
          "name": "amount",
          "type": "uint256"
        }
      ],
      "name": "stake",
      "outputs": [],
      "stateMutability": "nonpayable",
      "type": "function"
    },
    {
      "inputs": [],
      "name": "usdc",
      "outputs": [
        {
          "internalType": "contract IERC20",
          "name": "",
          "type": "address"
        }
      ],
      "stateMutability": "view",
      "type": "function"
    },
    {
      "inputs": [
        {
          "internalType": "uint256",
          "name": "campaignId",
          "type": "uint256"
        },
        {
          "internalType": "string",
          "name": "cid",
          "type": "string"
        }
      ],
      "name": "vector_db_update",
      "outputs": [],
      "stateMutability": "nonpayable",
      "type": "function"
    },
    {
      "inputs": [
        {
          "internalType": "uint256",
          "name": "amount",
          "type": "uint256"
        }
      ],
      "name": "withdraw",
      "outputs": [],
      "stateMutability": "nonpayable",
      "type": "function"
    }
  ],
  "bytecode": "0x60a0604052738a93d247134d91e0de6f96547cb0204e5be8e5d873ffffffffffffffffffffffffffffffffffffffff1660809073ffffffffffffffffffffffffffffffffffffffff1681525034801561005757600080fd5b506040516124d83803806124d883398181016040528101906100799190610133565b600160008190555080600560006101000a81548173ffffffffffffffffffffffffffffffffffffffff021916908373ffffffffffffffffffffffffffffffffffffffff160217905550600060048190555050610160565b600080fd5b600073ffffffffffffffffffffffffffffffffffffffff82169050919050565b6000610100826100d5565b9050919050565b610110816100f5565b811461011b57600080fd5b50565b60008151905061012d81610107565b92915050565b600060208284031215610149576101486100d0565b5b60006101578482850161011e565b91505092915050565b60805161234f610189600039600081816103e2015281816104330152610e51015261234f6000f3fe608060405234801561001057600080fd5b506004361061009e5760003560e01c80638952ac1e116100665780638952ac1e14610163578063a3e8b4e81461017f578063a694fc3a1461019b578063b871fa93146101b7578063d2e40f3e146101d35761009e565b8063055bab39146100a35780632e1a7d4d146100bf5780633e413bee146100db5780635598f8cc146100f95780636f77926b14610131575b600080fd5b6100bd60048036038101906100b891906115b3565b6101f1565b005b6100d960048036038101906100d4919061160f565b6102b8565b005b6100e3610431565b6040516100f091906116bb565b60405180910390f35b610113600480360381019061010e919061160f565b610455565b604051610128999897969594939291906117fc565b60405180910390f35b61014b600480360381019061014691906118ca565b6106a4565b60405161015a939291906119b5565b60405180910390f35b61017d600480360381019061017891906119fa565b6109f6565b005b61019960048036038101906101949190611a72565b610c2c565b005b6101b560048036038101906101b0919061160f565b610dfe565b005b6101d160048036038101906101cc9190611b7c565b610ef7565b005b6101db611223565b6040516101e89190611be3565b60405180910390f35b600560009054906101000a900473ffffffffffffffffffffffffffffffffffffffff1673ffffffffffffffffffffffffffffffffffffffff163373ffffffffffffffffffffffffffffffffffffffff1614610281576040517f08c379a000000000000000000000000000000000000000000000000000000000815260040161027890611c4a565b60405180910390fd5b806003838154811061029657610295611c6a565b5b90600052602060002090600a020160030190816102b39190611e9b565b505050565b6102c0611230565b60008111610303576040517f08c379a00000000000000000000000000000000000000000000000000000000081526004016102fa90611fb9565b60405180910390fd5b80600160003373ffffffffffffffffffffffffffffffffffffffff1673ffffffffffffffffffffffffffffffffffffffff168152602001908152602001600020541015610385576040517f08c379a000000000000000000000000000000000000000000000000000000000815260040161037c90612025565b60405180910390fd5b80600160003373ffffffffffffffffffffffffffffffffffffffff1673ffffffffffffffffffffffffffffffffffffffff16815260200190815260200160002060008282546103d49190612074565b9250508190555061042633827f000000000000000000000000000000000000000000000000000000000000000073ffffffffffffffffffffffffffffffffffffffff166112769092919063ffffffff16565b61042e6112f5565b50565b7f000000000000000000000000000000000000000000000000000000000000000081565b6060806000806060600080600080600060038b8154811061047957610478611c6a565b5b90600052602060002090600a0201905080600001816001018260020160009054906101000a900473ffffffffffffffffffffffffffffffffffffffff168360020160149054906101000a900460ff168460030185600401548660050154876006015488600701548880546104ec90611cc8565b80601f016020809104026020016040519081016040528092919081815260200182805461051890611cc8565b80156105655780601f1061053a57610100808354040283529160200191610565565b820191906000526020600020905b81548152906001019060200180831161054857829003601f168201915b5050505050985087805461057890611cc8565b80601f01602080910402602001604051908101604052809291908181526020018280546105a490611cc8565b80156105f15780601f106105c6576101008083540402835291602001916105f1565b820191906000526020600020905b8154815290600101906020018083116105d457829003601f168201915b5050505050975084805461060490611cc8565b80601f016020809104026020016040519081016040528092919081815260200182805461063090611cc8565b801561067d5780601f106106525761010080835404028352916020019161067d565b820191906000526020600020905b81548152906001019060200180831161066057829003601f168201915b50505050509450995099509950995099509950995099509950509193959799909294969850565b60006060806000600160008673ffffffffffffffffffffffffffffffffffffffff1673ffffffffffffffffffffffffffffffffffffffff1681526020019081526020016000205490506000600260008773ffffffffffffffffffffffffffffffffffffffff1673ffffffffffffffffffffffffffffffffffffffff1681526020019081526020016000208054905067ffffffffffffffff81111561074b5761074a611488565b5b6040519080825280602002602001820160405280156107795781602001602082028036833780820191505090505b5090506000600260008873ffffffffffffffffffffffffffffffffffffffff1673ffffffffffffffffffffffffffffffffffffffff1681526020019081526020016000208054905067ffffffffffffffff8111156107da576107d9611488565b5b6040519080825280602002602001820160405280156108085781602001602082028036833780820191505090505b50905060005b600260008973ffffffffffffffffffffffffffffffffffffffff1673ffffffffffffffffffffffffffffffffffffffff168152602001908152602001600020805490508110156109e2576000600260008a73ffffffffffffffffffffffffffffffffffffffff1673ffffffffffffffffffffffffffffffffffffffff16815260200190815260200160002082815481106108ab576108aa611c6a565b5b90600052602060002001549050600381815481106108cc576108cb611c6a565b5b90600052602060002090600a020160080160008a73ffffffffffffffffffffffffffffffffffffffff1673ffffffffffffffffffffffffffffffffffffffff1681526020019081526020016000205484838151811061092e5761092d611c6a565b5b6020026020010181815250506003818154811061094e5761094d611c6a565b5b90600052602060002090600a02016006015484838151811061097357610972611c6a565b5b602002602001015161098591906120d7565b6003828154811061099957610998611c6a565b5b90600052602060002090600a0201600701546109b59190612108565b8383815181106109c8576109c7611c6a565b5b60200260200101818152505050808060010191505061080e565b508282829550955095505050509193909250565b600560009054906101000a900473ffffffffffffffffffffffffffffffffffffffff1673ffffffffffffffffffffffffffffffffffffffff163373ffffffffffffffffffffffffffffffffffffffff1614610a86576040517f08c379a0000000000000000000000000000000000000000000000000000000008152600401610a7d90612196565b60405180910390fd5b8060038481548110610a9b57610a9a611c6a565b5b90600052602060002090600a02016006016000828254610abb91906121b6565b925050819055508060038481548110610ad757610ad6611c6a565b5b90600052602060002090600a020160080160008473ffffffffffffffffffffffffffffffffffffffff1673ffffffffffffffffffffffffffffffffffffffff1681526020019081526020016000206000828254610b3491906121b6565b9250508190555060038381548110610b4f57610b4e611c6a565b5b90600052602060002090600a0201600901829080600181540180825580915050600190039060005260206000200160009091909190916101000a81548173ffffffffffffffffffffffffffffffffffffffff021916908373ffffffffffffffffffffffffffffffffffffffff160217905550600260008373ffffffffffffffffffffffffffffffffffffffff1673ffffffffffffffffffffffffffffffffffffffff168152602001908152602001600020839080600181540180825580915050600190039060005260206000200160009091909190915055505050565b6000600360045481548110610c4457610c43611c6a565b5b90600052602060002090600a0201905088816000019081610c659190611e9b565b5087816001019081610c779190611e9b565b50858160020160006101000a81548173ffffffffffffffffffffffffffffffffffffffff021916908373ffffffffffffffffffffffffffffffffffffffff160217905550848160020160146101000a81548160ff02191690836004811115610ce257610ce1611776565b5b021790555086816003019081610cf89190611e9b565b508381600401819055508281600501819055508181600601819055506000816007018190555080600901869080600181540180825580915050600190039060005260206000200160009091909190916101000a81548173ffffffffffffffffffffffffffffffffffffffff021916908373ffffffffffffffffffffffffffffffffffffffff160217905550818160080160008873ffffffffffffffffffffffffffffffffffffffff1673ffffffffffffffffffffffffffffffffffffffff1681526020019081526020016000206000828254610dd491906121b6565b9250508190555060046000815480929190610dee906121ea565b9190505550505050505050505050565b610e06611230565b60008111610e49576040517f08c379a0000000000000000000000000000000000000000000000000000000008152600401610e4090611fb9565b60405180910390fd5b610e963330837f000000000000000000000000000000000000000000000000000000000000000073ffffffffffffffffffffffffffffffffffffffff166112ff909392919063ffffffff16565b80600160003373ffffffffffffffffffffffffffffffffffffffff1673ffffffffffffffffffffffffffffffffffffffff1681526020019081526020016000206000828254610ee591906121b6565b92505081905550610ef46112f5565b50565b600060038281548110610f0d57610f0c611c6a565b5b90600052602060002090600a02016005015484610f2a9190612108565b60038381548110610f3e57610f3d611c6a565b5b90600052602060002090600a02016004015486610f5b9190612108565b610f6591906121b6565b905080600160008573ffffffffffffffffffffffffffffffffffffffff1673ffffffffffffffffffffffffffffffffffffffff168152602001908152602001600020541015610fe9576040517f08c379a0000000000000000000000000000000000000000000000000000000008152600401610fe09061227e565b60405180910390fd5b80600160008573ffffffffffffffffffffffffffffffffffffffff1673ffffffffffffffffffffffffffffffffffffffff16815260200190815260200160002060008282546110389190612074565b92505081905550806003838154811061105457611053611c6a565b5b90600052602060002090600a0201600701600082825461107491906121b6565b9250508190555060005b6003838154811061109257611091611c6a565b5b90600052602060002090600a02016009018054905081101561121b576000600384815481106110c4576110c3611c6a565b5b90600052602060002090600a020160090182815481106110e7576110e6611c6a565b5b9060005260206000200160009054906101000a900473ffffffffffffffffffffffffffffffffffffffff16905060006003858154811061112a57611129611c6a565b5b90600052602060002090600a020160060154600386815481106111505761114f611c6a565b5b90600052602060002090600a020160080160008473ffffffffffffffffffffffffffffffffffffffff1673ffffffffffffffffffffffffffffffffffffffff168152602001908152602001600020546111a991906120d7565b846111b49190612108565b905080600160008473ffffffffffffffffffffffffffffffffffffffff1673ffffffffffffffffffffffffffffffffffffffff168152602001908152602001600020600082825461120591906121b6565b925050819055505050808060010191505061107e565b505050505050565b6000600380549050905090565b60026000540361126c576040517f3ee5aeb500000000000000000000000000000000000000000000000000000000815260040160405180910390fd5b6002600081905550565b6112f0838473ffffffffffffffffffffffffffffffffffffffff1663a9059cbb85856040516024016112a992919061229e565b604051602081830303815290604052915060e01b6020820180517bffffffffffffffffffffffffffffffffffffffffffffffffffffffff8381831617835250505050611381565b505050565b6001600081905550565b61137b848573ffffffffffffffffffffffffffffffffffffffff166323b872dd868686604051602401611334939291906122c7565b604051602081830303815290604052915060e01b6020820180517bffffffffffffffffffffffffffffffffffffffffffffffffffffffff8381831617835250505050611381565b50505050565b600080602060008451602086016000885af1806113a4576040513d6000823e3d81fd5b3d9250600051915050600082146113bf5760018114156113db565b60008473ffffffffffffffffffffffffffffffffffffffff163b145b1561141d57836040517f5274afe700000000000000000000000000000000000000000000000000000000815260040161141491906122fe565b60405180910390fd5b50505050565b6000604051905090565b600080fd5b600080fd5b6000819050919050565b61144a81611437565b811461145557600080fd5b50565b60008135905061146781611441565b92915050565b600080fd5b600080fd5b6000601f19601f8301169050919050565b7f4e487b7100000000000000000000000000000000000000000000000000000000600052604160045260246000fd5b6114c082611477565b810181811067ffffffffffffffff821117156114df576114de611488565b5b80604052505050565b60006114f2611423565b90506114fe82826114b7565b919050565b600067ffffffffffffffff82111561151e5761151d611488565b5b61152782611477565b9050602081019050919050565b82818337600083830152505050565b600061155661155184611503565b6114e8565b90508281526020810184848401111561157257611571611472565b5b61157d848285611534565b509392505050565b600082601f83011261159a5761159961146d565b5b81356115aa848260208601611543565b91505092915050565b600080604083850312156115ca576115c961142d565b5b60006115d885828601611458565b925050602083013567ffffffffffffffff8111156115f9576115f8611432565b5b61160585828601611585565b9150509250929050565b6000602082840312156116255761162461142d565b5b600061163384828501611458565b91505092915050565b600073ffffffffffffffffffffffffffffffffffffffff82169050919050565b6000819050919050565b600061168161167c6116778461163c565b61165c565b61163c565b9050919050565b600061169382611666565b9050919050565b60006116a582611688565b9050919050565b6116b58161169a565b82525050565b60006020820190506116d060008301846116ac565b92915050565b600081519050919050565b600082825260208201905092915050565b60005b838110156117105780820151818401526020810190506116f5565b60008484015250505050565b6000611727826116d6565b61173181856116e1565b93506117418185602086016116f2565b61174a81611477565b840191505092915050565b60006117608261163c565b9050919050565b61177081611755565b82525050565b7f4e487b7100000000000000000000000000000000000000000000000000000000600052602160045260246000fd5b600581106117b6576117b5611776565b5b50565b60008190506117c7826117a5565b919050565b60006117d7826117b9565b9050919050565b6117e7816117cc565b82525050565b6117f681611437565b82525050565b6000610120820190508181036000830152611817818c61171c565b9050818103602083015261182b818b61171c565b905061183a604083018a611767565b61184760608301896117de565b8181036080830152611859818861171c565b905061186860a08301876117ed565b61187560c08301866117ed565b61188260e08301856117ed565b6118906101008301846117ed565b9a9950505050505050505050565b6118a781611755565b81146118b257600080fd5b50565b6000813590506118c48161189e565b92915050565b6000602082840312156118e0576118df61142d565b5b60006118ee848285016118b5565b91505092915050565b600081519050919050565b600082825260208201905092915050565b6000819050602082019050919050565b61192c81611437565b82525050565b600061193e8383611923565b60208301905092915050565b6000602082019050919050565b6000611962826118f7565b61196c8185611902565b935061197783611913565b8060005b838110156119a857815161198f8882611932565b975061199a8361194a565b92505060018101905061197b565b5085935050505092915050565b60006060820190506119ca60008301866117ed565b81810360208301526119dc8185611957565b905081810360408301526119f08184611957565b9050949350505050565b600080600060608486031215611a1357611a1261142d565b5b6000611a2186828701611458565b9350506020611a32868287016118b5565b9250506040611a4386828701611458565b9150509250925092565b60058110611a5a57600080fd5b50565b600081359050611a6c81611a4d565b92915050565b600080600080600080600080610100898b031215611a9357611a9261142d565b5b600089013567ffffffffffffffff811115611ab157611ab0611432565b5b611abd8b828c01611585565b985050602089013567ffffffffffffffff811115611ade57611add611432565b5b611aea8b828c01611585565b975050604089013567ffffffffffffffff811115611b0b57611b0a611432565b5b611b178b828c01611585565b9650506060611b288b828c016118b5565b9550506080611b398b828c01611a5d565b94505060a0611b4a8b828c01611458565b93505060c0611b5b8b828c01611458565b92505060e0611b6c8b828c01611458565b9150509295985092959890939650565b60008060008060808587031215611b9657611b9561142d565b5b6000611ba487828801611458565b9450506020611bb587828801611458565b9350506040611bc6878288016118b5565b9250506060611bd787828801611458565b91505092959194509250565b6000602082019050611bf860008301846117ed565b92915050565b7f4f6e6c792061646d696e2063616e2075706461746520766563746f7220444200600082015250565b6000611c34601f836116e1565b9150611c3f82611bfe565b602082019050919050565b60006020820190508181036000830152611c6381611c27565b9050919050565b7f4e487b7100000000000000000000000000000000000000000000000000000000600052603260045260246000fd5b7f4e487b7100000000000000000000000000000000000000000000000000000000600052602260045260246000fd5b60006002820490506001821680611ce057607f821691505b602082108103611cf357611cf2611c99565b5b50919050565b60008190508160005260206000209050919050565b60006020601f8301049050919050565b600082821b905092915050565b600060088302611d5b7fffffffffffffffffffffffffffffffffffffffffffffffffffffffffffffffff82611d1e565b611d658683611d1e565b95508019841693508086168417925050509392505050565b6000611d98611d93611d8e84611437565b61165c565b611437565b9050919050565b6000819050919050565b611db283611d7d565b611dc6611dbe82611d9f565b848454611d2b565b825550505050565b600090565b611ddb611dce565b611de6818484611da9565b505050565b5b81811015611e0a57611dff600082611dd3565b600181019050611dec565b5050565b601f821115611e4f57611e2081611cf9565b611e2984611d0e565b81016020851015611e38578190505b611e4c611e4485611d0e565b830182611deb565b50505b505050565b600082821c905092915050565b6000611e7260001984600802611e54565b1980831691505092915050565b6000611e8b8383611e61565b9150826002028217905092915050565b611ea4826116d6565b67ffffffffffffffff811115611ebd57611ebc611488565b5b611ec78254611cc8565b611ed2828285611e0e565b600060209050601f831160018114611f055760008415611ef3578287015190505b611efd8582611e7f565b865550611f65565b601f198416611f1386611cf9565b60005b82811015611f3b57848901518255600182019150602085019450602081019050611f16565b86831015611f585784890151611f54601f891682611e61565b8355505b6001600288020188555050505b505050505050565b7f616d6f756e74203d203000000000000000000000000000000000000000000000600082015250565b6000611fa3600a836116e1565b9150611fae82611f6d565b602082019050919050565b60006020820190508181036000830152611fd281611f96565b9050919050565b7f696e73756666696369656e742062616c616e6365000000000000000000000000600082015250565b600061200f6014836116e1565b915061201a82611fd9565b602082019050919050565b6000602082019050818103600083015261203e81612002565b9050919050565b7f4e487b7100000000000000000000000000000000000000000000000000000000600052601160045260246000fd5b600061207f82611437565b915061208a83611437565b92508282039050818111156120a2576120a1612045565b5b92915050565b7f4e487b7100000000000000000000000000000000000000000000000000000000600052601260045260246000fd5b60006120e282611437565b91506120ed83611437565b9250826120fd576120fc6120a8565b5b828204905092915050565b600061211382611437565b915061211e83611437565b925082820261212c81611437565b9150828204841483151761214357612142612045565b5b5092915050565b7f4f6e6c792061646d696e2063616e20636f6e7472696275746500000000000000600082015250565b60006121806019836116e1565b915061218b8261214a565b602082019050919050565b600060208201905081810360008301526121af81612173565b9050919050565b60006121c182611437565b91506121cc83611437565b92508282019050808211156121e4576121e3612045565b5b92915050565b60006121f582611437565b91507fffffffffffffffffffffffffffffffffffffffffffffffffffffffffffffffff820361222757612226612045565b5b600182019050919050565b7f496e73756666696369656e74207669727475616c2062616c616e636500000000600082015250565b6000612268601c836116e1565b915061227382612232565b602082019050919050565b600060208201905081810360008301526122978161225b565b9050919050565b60006040820190506122b36000830185611767565b6122c060208301846117ed565b9392505050565b60006060820190506122dc6000830186611767565b6122e96020830185611767565b6122f660408301846117ed565b949350505050565b60006020820190506123136000830184611767565b9291505056fea2646970667358221220f8960bf82990bc2b022cee5e2357938f65c31c20fcb85de7782d3b951926d37a64736f6c634300081c0033",
  "linkReferences": {},
  "deployedLinkReferences": {}
}