{
  "_format": "hh-sol-artifact-1",
  "contractName": "main",
  "sourceName": "src/main.sol",
  "abi": [
    {
      "inputs": [
        {
          "internalType": "address",
          "name": "rofl",
          "type": "address"
        }
      ],
      "stateMutability": "nonpayable",
      "type": "constructor"
    },
    {
      "inputs": [],
      "name": "ReentrancyGuardReentrantCall",
      "type": "error"
    },
    {
      "inputs": [
        {
          "internalType": "address",
          "name": "token",
          "type": "address"
        }
      ],
      "name": "SafeERC20FailedOperation",
      "type": "error"
    },
    {
      "inputs": [
        {
          "internalType": "uint256",
          "name": "in_token",
          "type": "uint256"
        },
        {
          "internalType": "uint256",
          "name": "out_token",
          "type": "uint256"
        },
        {
          "internalType": "address",
          "name": "user",
          "type": "address"
        },
        {
          "internalType": "uint256",
          "name": "campaignId",
          "type": "uint256"
        }
      ],
      "name": "chat",
      "outputs": [],
      "stateMutability": "nonpayable",
      "type": "function"
    },
    {
      "inputs": [
        {
          "internalType": "uint256",
          "name": "campaignId",
          "type": "uint256"
        },
        {
          "internalType": "address",
          "name": "contributer",
          "type": "address"
        },
        {
          "internalType": "uint256",
          "name": "data_token_amount",
          "type": "uint256"
        }
      ],
      "name": "contribute",
      "outputs": [],
      "stateMutability": "nonpayable",
      "type": "function"
    },
    {
      "inputs": [
        {
          "internalType": "string",
          "name": "name",
          "type": "string"
        },
        {
          "internalType": "string",
          "name": "description",
          "type": "string"
        },
        {
          "internalType": "string",
          "name": "vector_db_cid",
          "type": "string"
        },
        {
          "internalType": "address",
          "name": "owner",
          "type": "address"
        },
        {
          "internalType": "enum main.Category",
          "name": "category",
          "type": "uint8"
        },
        {
          "internalType": "uint256",
          "name": "in_token_price",
          "type": "uint256"
        },
        {
          "internalType": "uint256",
          "name": "out_token_price",
          "type": "uint256"
        },
        {
          "internalType": "uint256",
          "name": "initial_data_token",
          "type": "uint256"
        }
      ],
      "name": "createCampaign",
      "outputs": [],
      "stateMutability": "nonpayable",
      "type": "function"
    },
    {
      "inputs": [
        {
          "internalType": "uint256",
          "name": "campaignId",
          "type": "uint256"
        }
      ],
      "name": "getCampaign",
      "outputs": [
        {
          "internalType": "string",
          "name": "",
          "type": "string"
        },
        {
          "internalType": "string",
          "name": "",
          "type": "string"
        },
        {
          "internalType": "address",
          "name": "",
          "type": "address"
        },
        {
          "internalType": "enum main.Category",
          "name": "",
          "type": "uint8"
        },
        {
          "internalType": "string",
          "name": "",
          "type": "string"
        },
        {
          "internalType": "uint256",
          "name": "",
          "type": "uint256"
        },
        {
          "internalType": "uint256",
          "name": "",
          "type": "uint256"
        },
        {
          "internalType": "uint256",
          "name": "",
          "type": "uint256"
        },
        {
          "internalType": "uint256",
          "name": "",
          "type": "uint256"
        }
      ],
      "stateMutability": "view",
      "type": "function"
    },
    {
      "inputs": [
        {
          "internalType": "address",
          "name": "user",
          "type": "address"
        }
      ],
      "name": "getUser",
      "outputs": [
        {
          "internalType": "uint256",
          "name": "",
          "type": "uint256"
        },
        {
          "internalType": "uint256[]",
          "name": "",
          "type": "uint256[]"
        },
        {
          "internalType": "uint256[]",
          "name": "",
          "type": "uint256[]"
        }
      ],
      "stateMutability": "view",
      "type": "function"
    },
    {
      "inputs": [],
      "name": "get_campaigns_length",
      "outputs": [
        {
          "internalType": "uint256",
          "name": "",
          "type": "uint256"
        }
      ],
      "stateMutability": "view",
      "type": "function"
    },
    {
      "inputs": [
        {
          "internalType": "uint256",
          "name": "amount",
          "type": "uint256"
        }
      ],
      "name": "stake",
      "outputs": [],
      "stateMutability": "nonpayable",
      "type": "function"
    },
    {
      "inputs": [],
      "name": "usdc",
      "outputs": [
        {
          "internalType": "contract IERC20",
          "name": "",
          "type": "address"
        }
      ],
      "stateMutability": "view",
      "type": "function"
    },
    {
      "inputs": [
        {
          "internalType": "uint256",
          "name": "campaignId",
          "type": "uint256"
        },
        {
          "internalType": "string",
          "name": "cid",
          "type": "string"
        }
      ],
      "name": "vector_db_update",
      "outputs": [],
      "stateMutability": "nonpayable",
      "type": "function"
    },
    {
      "inputs": [
        {
          "internalType": "uint256",
          "name": "amount",
          "type": "uint256"
        }
      ],
      "name": "withdraw",
      "outputs": [],
      "stateMutability": "nonpayable",
      "type": "function"
    }
  ],
  "bytecode": "0x60a0604052738a93d247134d91e0de6f96547cb0204e5be8e5d873ffffffffffffffffffffffffffffffffffffffff1660809073ffffffffffffffffffffffffffffffffffffffff1681525034801561005757600080fd5b5060405161250538038061250583398181016040528101906100799190610133565b600160008190555080600560006101000a81548173ffffffffffffffffffffffffffffffffffffffff021916908373ffffffffffffffffffffffffffffffffffffffff160217905550600060048190555050610160565b600080fd5b600073ffffffffffffffffffffffffffffffffffffffff82169050919050565b6000610100826100d5565b9050919050565b610110816100f5565b811461011b57600080fd5b50565b60008151905061012d81610107565b92915050565b600060208284031215610149576101486100d0565b5b60006101578482850161011e565b91505092915050565b60805161237c610189600039600081816103e2015281816104330152610e7e015261237c6000f3fe608060405234801561001057600080fd5b506004361061009e5760003560e01c80638952ac1e116100665780638952ac1e14610163578063a3e8b4e81461017f578063a694fc3a1461019b578063b871fa93146101b7578063d2e40f3e146101d35761009e565b8063055bab39146100a35780632e1a7d4d146100bf5780633e413bee146100db5780635598f8cc146100f95780636f77926b14610131575b600080fd5b6100bd60048036038101906100b891906115e0565b6101f1565b005b6100d960048036038101906100d4919061163c565b6102b8565b005b6100e3610431565b6040516100f091906116e8565b60405180910390f35b610113600480360381019061010e919061163c565b610455565b60405161012899989796959493929190611829565b60405180910390f35b61014b600480360381019061014691906118f7565b6106a4565b60405161015a939291906119e2565b60405180910390f35b61017d60048036038101906101789190611a27565b6109f6565b005b61019960048036038101906101949190611a9f565b610c2c565b005b6101b560048036038101906101b0919061163c565b610e2b565b005b6101d160048036038101906101cc9190611ba9565b610f24565b005b6101db611250565b6040516101e89190611c10565b60405180910390f35b600560009054906101000a900473ffffffffffffffffffffffffffffffffffffffff1673ffffffffffffffffffffffffffffffffffffffff163373ffffffffffffffffffffffffffffffffffffffff1614610281576040517f08c379a000000000000000000000000000000000000000000000000000000000815260040161027890611c77565b60405180910390fd5b806003838154811061029657610295611c97565b5b90600052602060002090600a020160030190816102b39190611ec8565b505050565b6102c061125d565b60008111610303576040517f08c379a00000000000000000000000000000000000000000000000000000000081526004016102fa90611fe6565b60405180910390fd5b80600160003373ffffffffffffffffffffffffffffffffffffffff1673ffffffffffffffffffffffffffffffffffffffff168152602001908152602001600020541015610385576040517f08c379a000000000000000000000000000000000000000000000000000000000815260040161037c90612052565b60405180910390fd5b80600160003373ffffffffffffffffffffffffffffffffffffffff1673ffffffffffffffffffffffffffffffffffffffff16815260200190815260200160002060008282546103d491906120a1565b9250508190555061042633827f000000000000000000000000000000000000000000000000000000000000000073ffffffffffffffffffffffffffffffffffffffff166112a39092919063ffffffff16565b61042e611322565b50565b7f000000000000000000000000000000000000000000000000000000000000000081565b6060806000806060600080600080600060038b8154811061047957610478611c97565b5b90600052602060002090600a0201905080600001816001018260020160009054906101000a900473ffffffffffffffffffffffffffffffffffffffff168360020160149054906101000a900460ff168460030185600401548660050154876006015488600701548880546104ec90611cf5565b80601f016020809104026020016040519081016040528092919081815260200182805461051890611cf5565b80156105655780601f1061053a57610100808354040283529160200191610565565b820191906000526020600020905b81548152906001019060200180831161054857829003601f168201915b5050505050985087805461057890611cf5565b80601f01602080910402602001604051908101604052809291908181526020018280546105a490611cf5565b80156105f15780601f106105c6576101008083540402835291602001916105f1565b820191906000526020600020905b8154815290600101906020018083116105d457829003601f168201915b5050505050975084805461060490611cf5565b80601f016020809104026020016040519081016040528092919081815260200182805461063090611cf5565b801561067d5780601f106106525761010080835404028352916020019161067d565b820191906000526020600020905b81548152906001019060200180831161066057829003601f168201915b50505050509450995099509950995099509950995099509950509193959799909294969850565b60006060806000600160008673ffffffffffffffffffffffffffffffffffffffff1673ffffffffffffffffffffffffffffffffffffffff1681526020019081526020016000205490506000600260008773ffffffffffffffffffffffffffffffffffffffff1673ffffffffffffffffffffffffffffffffffffffff1681526020019081526020016000208054905067ffffffffffffffff81111561074b5761074a6114b5565b5b6040519080825280602002602001820160405280156107795781602001602082028036833780820191505090505b5090506000600260008873ffffffffffffffffffffffffffffffffffffffff1673ffffffffffffffffffffffffffffffffffffffff1681526020019081526020016000208054905067ffffffffffffffff8111156107da576107d96114b5565b5b6040519080825280602002602001820160405280156108085781602001602082028036833780820191505090505b50905060005b600260008973ffffffffffffffffffffffffffffffffffffffff1673ffffffffffffffffffffffffffffffffffffffff168152602001908152602001600020805490508110156109e2576000600260008a73ffffffffffffffffffffffffffffffffffffffff1673ffffffffffffffffffffffffffffffffffffffff16815260200190815260200160002082815481106108ab576108aa611c97565b5b90600052602060002001549050600381815481106108cc576108cb611c97565b5b90600052602060002090600a020160080160008a73ffffffffffffffffffffffffffffffffffffffff1673ffffffffffffffffffffffffffffffffffffffff1681526020019081526020016000205484838151811061092e5761092d611c97565b5b6020026020010181815250506003818154811061094e5761094d611c97565b5b90600052602060002090600a02016006015484838151811061097357610972611c97565b5b60200260200101516109859190612104565b6003828154811061099957610998611c97565b5b90600052602060002090600a0201600701546109b59190612135565b8383815181106109c8576109c7611c97565b5b60200260200101818152505050808060010191505061080e565b508282829550955095505050509193909250565b600560009054906101000a900473ffffffffffffffffffffffffffffffffffffffff1673ffffffffffffffffffffffffffffffffffffffff163373ffffffffffffffffffffffffffffffffffffffff1614610a86576040517f08c379a0000000000000000000000000000000000000000000000000000000008152600401610a7d906121c3565b60405180910390fd5b8060038481548110610a9b57610a9a611c97565b5b90600052602060002090600a02016006016000828254610abb91906121e3565b925050819055508060038481548110610ad757610ad6611c97565b5b90600052602060002090600a020160080160008473ffffffffffffffffffffffffffffffffffffffff1673ffffffffffffffffffffffffffffffffffffffff1681526020019081526020016000206000828254610b3491906121e3565b9250508190555060038381548110610b4f57610b4e611c97565b5b90600052602060002090600a0201600901829080600181540180825580915050600190039060005260206000200160009091909190916101000a81548173ffffffffffffffffffffffffffffffffffffffff021916908373ffffffffffffffffffffffffffffffffffffffff160217905550600260008373ffffffffffffffffffffffffffffffffffffffff1673ffffffffffffffffffffffffffffffffffffffff168152602001908152602001600020839080600181540180825580915050600190039060005260206000200160009091909190915055505050565b600360018160018154018082558091505003906000526020600020905050600060036001600380549050610c6091906120a1565b81548110610c7157610c70611c97565b5b90600052602060002090600a0201905088816000019081610c929190611ec8565b5087816001019081610ca49190611ec8565b50858160020160006101000a81548173ffffffffffffffffffffffffffffffffffffffff021916908373ffffffffffffffffffffffffffffffffffffffff160217905550848160020160146101000a81548160ff02191690836004811115610d0f57610d0e6117a3565b5b021790555086816003019081610d259190611ec8565b508381600401819055508281600501819055508181600601819055506000816007018190555080600901869080600181540180825580915050600190039060005260206000200160009091909190916101000a81548173ffffffffffffffffffffffffffffffffffffffff021916908373ffffffffffffffffffffffffffffffffffffffff160217905550818160080160008873ffffffffffffffffffffffffffffffffffffffff1673ffffffffffffffffffffffffffffffffffffffff1681526020019081526020016000206000828254610e0191906121e3565b9250508190555060046000815480929190610e1b90612217565b9190505550505050505050505050565b610e3361125d565b60008111610e76576040517f08c379a0000000000000000000000000000000000000000000000000000000008152600401610e6d90611fe6565b60405180910390fd5b610ec33330837f000000000000000000000000000000000000000000000000000000000000000073ffffffffffffffffffffffffffffffffffffffff1661132c909392919063ffffffff16565b80600160003373ffffffffffffffffffffffffffffffffffffffff1673ffffffffffffffffffffffffffffffffffffffff1681526020019081526020016000206000828254610f1291906121e3565b92505081905550610f21611322565b50565b600060038281548110610f3a57610f39611c97565b5b90600052602060002090600a02016005015484610f579190612135565b60038381548110610f6b57610f6a611c97565b5b90600052602060002090600a02016004015486610f889190612135565b610f9291906121e3565b905080600160008573ffffffffffffffffffffffffffffffffffffffff1673ffffffffffffffffffffffffffffffffffffffff168152602001908152602001600020541015611016576040517f08c379a000000000000000000000000000000000000000000000000000000000815260040161100d906122ab565b60405180910390fd5b80600160008573ffffffffffffffffffffffffffffffffffffffff1673ffffffffffffffffffffffffffffffffffffffff168152602001908152602001600020600082825461106591906120a1565b92505081905550806003838154811061108157611080611c97565b5b90600052602060002090600a020160070160008282546110a191906121e3565b9250508190555060005b600383815481106110bf576110be611c97565b5b90600052602060002090600a020160090180549050811015611248576000600384815481106110f1576110f0611c97565b5b90600052602060002090600a0201600901828154811061111457611113611c97565b5b9060005260206000200160009054906101000a900473ffffffffffffffffffffffffffffffffffffffff16905060006003858154811061115757611156611c97565b5b90600052602060002090600a0201600601546003868154811061117d5761117c611c97565b5b90600052602060002090600a020160080160008473ffffffffffffffffffffffffffffffffffffffff1673ffffffffffffffffffffffffffffffffffffffff168152602001908152602001600020546111d69190612104565b846111e19190612135565b905080600160008473ffffffffffffffffffffffffffffffffffffffff1673ffffffffffffffffffffffffffffffffffffffff168152602001908152602001600020600082825461123291906121e3565b92505081905550505080806001019150506110ab565b505050505050565b6000600380549050905090565b600260005403611299576040517f3ee5aeb500000000000000000000000000000000000000000000000000000000815260040160405180910390fd5b6002600081905550565b61131d838473ffffffffffffffffffffffffffffffffffffffff1663a9059cbb85856040516024016112d69291906122cb565b604051602081830303815290604052915060e01b6020820180517bffffffffffffffffffffffffffffffffffffffffffffffffffffffff83818316178352505050506113ae565b505050565b6001600081905550565b6113a8848573ffffffffffffffffffffffffffffffffffffffff166323b872dd868686604051602401611361939291906122f4565b604051602081830303815290604052915060e01b6020820180517bffffffffffffffffffffffffffffffffffffffffffffffffffffffff83818316178352505050506113ae565b50505050565b600080602060008451602086016000885af1806113d1576040513d6000823e3d81fd5b3d9250600051915050600082146113ec576001811415611408565b60008473ffffffffffffffffffffffffffffffffffffffff163b145b1561144a57836040517f5274afe7000000000000000000000000000000000000000000000000000000008152600401611441919061232b565b60405180910390fd5b50505050565b6000604051905090565b600080fd5b600080fd5b6000819050919050565b61147781611464565b811461148257600080fd5b50565b6000813590506114948161146e565b92915050565b600080fd5b600080fd5b6000601f19601f8301169050919050565b7f4e487b7100000000000000000000000000000000000000000000000000000000600052604160045260246000fd5b6114ed826114a4565b810181811067ffffffffffffffff8211171561150c5761150b6114b5565b5b80604052505050565b600061151f611450565b905061152b82826114e4565b919050565b600067ffffffffffffffff82111561154b5761154a6114b5565b5b611554826114a4565b9050602081019050919050565b82818337600083830152505050565b600061158361157e84611530565b611515565b90508281526020810184848401111561159f5761159e61149f565b5b6115aa848285611561565b509392505050565b600082601f8301126115c7576115c661149a565b5b81356115d7848260208601611570565b91505092915050565b600080604083850312156115f7576115f661145a565b5b600061160585828601611485565b925050602083013567ffffffffffffffff8111156116265761162561145f565b5b611632858286016115b2565b9150509250929050565b6000602082840312156116525761165161145a565b5b600061166084828501611485565b91505092915050565b600073ffffffffffffffffffffffffffffffffffffffff82169050919050565b6000819050919050565b60006116ae6116a96116a484611669565b611689565b611669565b9050919050565b60006116c082611693565b9050919050565b60006116d2826116b5565b9050919050565b6116e2816116c7565b82525050565b60006020820190506116fd60008301846116d9565b92915050565b600081519050919050565b600082825260208201905092915050565b60005b8381101561173d578082015181840152602081019050611722565b60008484015250505050565b600061175482611703565b61175e818561170e565b935061176e81856020860161171f565b611777816114a4565b840191505092915050565b600061178d82611669565b9050919050565b61179d81611782565b82525050565b7f4e487b7100000000000000000000000000000000000000000000000000000000600052602160045260246000fd5b600581106117e3576117e26117a3565b5b50565b60008190506117f4826117d2565b919050565b6000611804826117e6565b9050919050565b611814816117f9565b82525050565b61182381611464565b82525050565b6000610120820190508181036000830152611844818c611749565b90508181036020830152611858818b611749565b9050611867604083018a611794565b611874606083018961180b565b81810360808301526118868188611749565b905061189560a083018761181a565b6118a260c083018661181a565b6118af60e083018561181a565b6118bd61010083018461181a565b9a9950505050505050505050565b6118d481611782565b81146118df57600080fd5b50565b6000813590506118f1816118cb565b92915050565b60006020828403121561190d5761190c61145a565b5b600061191b848285016118e2565b91505092915050565b600081519050919050565b600082825260208201905092915050565b6000819050602082019050919050565b61195981611464565b82525050565b600061196b8383611950565b60208301905092915050565b6000602082019050919050565b600061198f82611924565b611999818561192f565b93506119a483611940565b8060005b838110156119d55781516119bc888261195f565b97506119c783611977565b9250506001810190506119a8565b5085935050505092915050565b60006060820190506119f7600083018661181a565b8181036020830152611a098185611984565b90508181036040830152611a1d8184611984565b9050949350505050565b600080600060608486031215611a4057611a3f61145a565b5b6000611a4e86828701611485565b9350506020611a5f868287016118e2565b9250506040611a7086828701611485565b9150509250925092565b60058110611a8757600080fd5b50565b600081359050611a9981611a7a565b92915050565b600080600080600080600080610100898b031215611ac057611abf61145a565b5b600089013567ffffffffffffffff811115611ade57611add61145f565b5b611aea8b828c016115b2565b985050602089013567ffffffffffffffff811115611b0b57611b0a61145f565b5b611b178b828c016115b2565b975050604089013567ffffffffffffffff811115611b3857611b3761145f565b5b611b448b828c016115b2565b9650506060611b558b828c016118e2565b9550506080611b668b828c01611a8a565b94505060a0611b778b828c01611485565b93505060c0611b888b828c01611485565b92505060e0611b998b828c01611485565b9150509295985092959890939650565b60008060008060808587031215611bc357611bc261145a565b5b6000611bd187828801611485565b9450506020611be287828801611485565b9350506040611bf3878288016118e2565b9250506060611c0487828801611485565b91505092959194509250565b6000602082019050611c25600083018461181a565b92915050565b7f4f6e6c792061646d696e2063616e2075706461746520766563746f7220444200600082015250565b6000611c61601f8361170e565b9150611c6c82611c2b565b602082019050919050565b60006020820190508181036000830152611c9081611c54565b9050919050565b7f4e487b7100000000000000000000000000000000000000000000000000000000600052603260045260246000fd5b7f4e487b7100000000000000000000000000000000000000000000000000000000600052602260045260246000fd5b60006002820490506001821680611d0d57607f821691505b602082108103611d2057611d1f611cc6565b5b50919050565b60008190508160005260206000209050919050565b60006020601f8301049050919050565b600082821b905092915050565b600060088302611d887fffffffffffffffffffffffffffffffffffffffffffffffffffffffffffffffff82611d4b565b611d928683611d4b565b95508019841693508086168417925050509392505050565b6000611dc5611dc0611dbb84611464565b611689565b611464565b9050919050565b6000819050919050565b611ddf83611daa565b611df3611deb82611dcc565b848454611d58565b825550505050565b600090565b611e08611dfb565b611e13818484611dd6565b505050565b5b81811015611e3757611e2c600082611e00565b600181019050611e19565b5050565b601f821115611e7c57611e4d81611d26565b611e5684611d3b565b81016020851015611e65578190505b611e79611e7185611d3b565b830182611e18565b50505b505050565b600082821c905092915050565b6000611e9f60001984600802611e81565b1980831691505092915050565b6000611eb88383611e8e565b9150826002028217905092915050565b611ed182611703565b67ffffffffffffffff811115611eea57611ee96114b5565b5b611ef48254611cf5565b611eff828285611e3b565b600060209050601f831160018114611f325760008415611f20578287015190505b611f2a8582611eac565b865550611f92565b601f198416611f4086611d26565b60005b82811015611f6857848901518255600182019150602085019450602081019050611f43565b86831015611f855784890151611f81601f891682611e8e565b8355505b6001600288020188555050505b505050505050565b7f616d6f756e74203d203000000000000000000000000000000000000000000000600082015250565b6000611fd0600a8361170e565b9150611fdb82611f9a565b602082019050919050565b60006020820190508181036000830152611fff81611fc3565b9050919050565b7f696e73756666696369656e742062616c616e6365000000000000000000000000600082015250565b600061203c60148361170e565b915061204782612006565b602082019050919050565b6000602082019050818103600083015261206b8161202f565b9050919050565b7f4e487b7100000000000000000000000000000000000000000000000000000000600052601160045260246000fd5b60006120ac82611464565b91506120b783611464565b92508282039050818111156120cf576120ce612072565b5b92915050565b7f4e487b7100000000000000000000000000000000000000000000000000000000600052601260045260246000fd5b600061210f82611464565b915061211a83611464565b92508261212a576121296120d5565b5b828204905092915050565b600061214082611464565b915061214b83611464565b925082820261215981611464565b915082820484148315176121705761216f612072565b5b5092915050565b7f4f6e6c792061646d696e2063616e20636f6e7472696275746500000000000000600082015250565b60006121ad60198361170e565b91506121b882612177565b602082019050919050565b600060208201905081810360008301526121dc816121a0565b9050919050565b60006121ee82611464565b91506121f983611464565b925082820190508082111561221157612210612072565b5b92915050565b600061222282611464565b91507fffffffffffffffffffffffffffffffffffffffffffffffffffffffffffffffff820361225457612253612072565b5b600182019050919050565b7f496e73756666696369656e74207669727475616c2062616c616e636500000000600082015250565b6000612295601c8361170e565b91506122a08261225f565b602082019050919050565b600060208201905081810360008301526122c481612288565b9050919050565b60006040820190506122e06000830185611794565b6122ed602083018461181a565b9392505050565b60006060820190506123096000830186611794565b6123166020830185611794565b612323604083018461181a565b949350505050565b60006020820190506123406000830184611794565b9291505056fea26469706673582212201d07d0d4e2b27d0af711ffbd12424461356be7315f51ef2f4e9851ab9e26d72364736f6c634300081c0033",
  "linkReferences": {},
  "deployedLinkReferences": {}
}