{
  "_format": "hh-sol-artifact-1",
  "contractName": "main",
  "sourceName": "src/main.sol",
  "abi": [
    {
      "inputs": [
        {
          "internalType": "address",
          "name": "rofl",
          "type": "address"
        }
      ],
      "stateMutability": "nonpayable",
      "type": "constructor"
    },
    {
      "inputs": [
        {
          "internalType": "uint256",
          "name": "in_token",
          "type": "uint256"
        },
        {
          "internalType": "uint256",
          "name": "out_token",
          "type": "uint256"
        },
        {
          "internalType": "address",
          "name": "user",
          "type": "address"
        },
        {
          "internalType": "uint256",
          "name": "campaignId",
          "type": "uint256"
        }
      ],
      "name": "chat",
      "outputs": [],
      "stateMutability": "nonpayable",
      "type": "function"
    },
    {
      "inputs": [
        {
          "internalType": "uint256",
          "name": "campaignId",
          "type": "uint256"
        },
        {
          "internalType": "address",
          "name": "contributer",
          "type": "address"
        },
        {
          "internalType": "uint256",
          "name": "data_token_amount",
          "type": "uint256"
        }
      ],
      "name": "contribute",
      "outputs": [],
      "stateMutability": "nonpayable",
      "type": "function"
    },
    {
      "inputs": [
        {
          "internalType": "string",
          "name": "name",
          "type": "string"
        },
        {
          "internalType": "string",
          "name": "description",
          "type": "string"
        },
        {
          "internalType": "string",
          "name": "vector_db_cid",
          "type": "string"
        },
        {
          "internalType": "address",
          "name": "owner",
          "type": "address"
        },
        {
          "internalType": "enum main.Category",
          "name": "category",
          "type": "uint8"
        },
        {
          "internalType": "uint256",
          "name": "in_token_price",
          "type": "uint256"
        },
        {
          "internalType": "uint256",
          "name": "out_token_price",
          "type": "uint256"
        },
        {
          "internalType": "uint256",
          "name": "initial_data_token",
          "type": "uint256"
        }
      ],
      "name": "createCampaign",
      "outputs": [],
      "stateMutability": "nonpayable",
      "type": "function"
    },
    {
      "inputs": [
        {
          "internalType": "uint256",
          "name": "campaignId",
          "type": "uint256"
        }
      ],
      "name": "getCampaign",
      "outputs": [
        {
          "internalType": "string",
          "name": "",
          "type": "string"
        },
        {
          "internalType": "string",
          "name": "",
          "type": "string"
        },
        {
          "internalType": "address",
          "name": "",
          "type": "address"
        },
        {
          "internalType": "enum main.Category",
          "name": "",
          "type": "uint8"
        },
        {
          "internalType": "string",
          "name": "",
          "type": "string"
        },
        {
          "internalType": "uint256",
          "name": "",
          "type": "uint256"
        },
        {
          "internalType": "uint256",
          "name": "",
          "type": "uint256"
        },
        {
          "internalType": "uint256",
          "name": "",
          "type": "uint256"
        },
        {
          "internalType": "uint256",
          "name": "",
          "type": "uint256"
        }
      ],
      "stateMutability": "view",
      "type": "function"
    },
    {
      "inputs": [
        {
          "internalType": "address",
          "name": "user",
          "type": "address"
        }
      ],
      "name": "getUser",
      "outputs": [
        {
          "internalType": "uint256",
          "name": "",
          "type": "uint256"
        },
        {
          "internalType": "uint256[]",
          "name": "",
          "type": "uint256[]"
        },
        {
          "internalType": "uint256[]",
          "name": "",
          "type": "uint256[]"
        }
      ],
      "stateMutability": "view",
      "type": "function"
    },
    {
      "inputs": [
        {
          "internalType": "uint256",
          "name": "campaignId",
          "type": "uint256"
        },
        {
          "internalType": "string",
          "name": "cid",
          "type": "string"
        }
      ],
      "name": "vector_db_update",
      "outputs": [],
      "stateMutability": "nonpayable",
      "type": "function"
    }
  ],
  "bytecode": "0x608060405234801561001057600080fd5b50604051611d47380380611d47833981810160405281019061003291906100e4565b80600460006101000a81548173ffffffffffffffffffffffffffffffffffffffff021916908373ffffffffffffffffffffffffffffffffffffffff160217905550600060038190555050610111565b600080fd5b600073ffffffffffffffffffffffffffffffffffffffff82169050919050565b60006100b182610086565b9050919050565b6100c1816100a6565b81146100cc57600080fd5b50565b6000815190506100de816100b8565b92915050565b6000602082840312156100fa576100f9610081565b5b6000610108848285016100cf565b91505092915050565b611c27806101206000396000f3fe608060405234801561001057600080fd5b50600436106100625760003560e01c8063055bab39146100675780635598f8cc146100835780636f77926b146100bb5780638952ac1e146100ed578063a3e8b4e814610109578063b871fa9314610125575b600080fd5b610081600480360381019061007c9190611069565b610141565b005b61009d600480360381019061009891906110c5565b610208565b6040516100b299989796959493929190611238565b60405180910390f35b6100d560048036038101906100d09190611306565b610457565b6040516100e4939291906113f1565b60405180910390f35b61010760048036038101906101029190611436565b6107a8565b005b610123600480360381019061011e91906114ae565b6109de565b005b61013f600480360381019061013a91906115b8565b610bb0565b005b600460009054906101000a900473ffffffffffffffffffffffffffffffffffffffff1673ffffffffffffffffffffffffffffffffffffffff163373ffffffffffffffffffffffffffffffffffffffff16146101d1576040517f08c379a00000000000000000000000000000000000000000000000000000000081526004016101c89061166b565b60405180910390fd5b80600283815481106101e6576101e561168b565b5b90600052602060002090600a0201600301908161020391906118c6565b505050565b6060806000806060600080600080600060028b8154811061022c5761022b61168b565b5b90600052602060002090600a0201905080600001816001018260020160009054906101000a900473ffffffffffffffffffffffffffffffffffffffff168360020160149054906101000a900460ff1684600301856004015486600501548760060154886007015488805461029f906116e9565b80601f01602080910402602001604051908101604052809291908181526020018280546102cb906116e9565b80156103185780601f106102ed57610100808354040283529160200191610318565b820191906000526020600020905b8154815290600101906020018083116102fb57829003601f168201915b5050505050985087805461032b906116e9565b80601f0160208091040260200160405190810160405280929190818152602001828054610357906116e9565b80156103a45780601f10610379576101008083540402835291602001916103a4565b820191906000526020600020905b81548152906001019060200180831161038757829003601f168201915b505050505097508480546103b7906116e9565b80601f01602080910402602001604051908101604052809291908181526020018280546103e3906116e9565b80156104305780601f1061040557610100808354040283529160200191610430565b820191906000526020600020905b81548152906001019060200180831161041357829003601f168201915b50505050509450995099509950995099509950995099509950509193959799909294969850565b600060608060008060008673ffffffffffffffffffffffffffffffffffffffff1673ffffffffffffffffffffffffffffffffffffffff1681526020019081526020016000205490506000600160008773ffffffffffffffffffffffffffffffffffffffff1673ffffffffffffffffffffffffffffffffffffffff1681526020019081526020016000208054905067ffffffffffffffff8111156104fd576104fc610f3e565b5b60405190808252806020026020018201604052801561052b5781602001602082028036833780820191505090505b5090506000600160008873ffffffffffffffffffffffffffffffffffffffff1673ffffffffffffffffffffffffffffffffffffffff1681526020019081526020016000208054905067ffffffffffffffff81111561058c5761058b610f3e565b5b6040519080825280602002602001820160405280156105ba5781602001602082028036833780820191505090505b50905060005b600160008973ffffffffffffffffffffffffffffffffffffffff1673ffffffffffffffffffffffffffffffffffffffff16815260200190815260200160002080549050811015610794576000600160008a73ffffffffffffffffffffffffffffffffffffffff1673ffffffffffffffffffffffffffffffffffffffff168152602001908152602001600020828154811061065d5761065c61168b565b5b906000526020600020015490506002818154811061067e5761067d61168b565b5b90600052602060002090600a020160080160008a73ffffffffffffffffffffffffffffffffffffffff1673ffffffffffffffffffffffffffffffffffffffff168152602001908152602001600020548483815181106106e0576106df61168b565b5b60200260200101818152505060028181548110610700576106ff61168b565b5b90600052602060002090600a0201600601548483815181106107255761072461168b565b5b602002602001015161073791906119f6565b6002828154811061074b5761074a61168b565b5b90600052602060002090600a0201600701546107679190611a27565b83838151811061077a5761077961168b565b5b6020026020010181815250505080806001019150506105c0565b508282829550955095505050509193909250565b600460009054906101000a900473ffffffffffffffffffffffffffffffffffffffff1673ffffffffffffffffffffffffffffffffffffffff163373ffffffffffffffffffffffffffffffffffffffff1614610838576040517f08c379a000000000000000000000000000000000000000000000000000000000815260040161082f90611ab5565b60405180910390fd5b806002848154811061084d5761084c61168b565b5b90600052602060002090600a0201600601600082825461086d9190611ad5565b9250508190555080600284815481106108895761088861168b565b5b90600052602060002090600a020160080160008473ffffffffffffffffffffffffffffffffffffffff1673ffffffffffffffffffffffffffffffffffffffff16815260200190815260200160002060008282546108e69190611ad5565b92505081905550600283815481106109015761090061168b565b5b90600052602060002090600a0201600901829080600181540180825580915050600190039060005260206000200160009091909190916101000a81548173ffffffffffffffffffffffffffffffffffffffff021916908373ffffffffffffffffffffffffffffffffffffffff160217905550600160008373ffffffffffffffffffffffffffffffffffffffff1673ffffffffffffffffffffffffffffffffffffffff168152602001908152602001600020839080600181540180825580915050600190039060005260206000200160009091909190915055505050565b60006002600354815481106109f6576109f561168b565b5b90600052602060002090600a0201905088816000019081610a1791906118c6565b5087816001019081610a2991906118c6565b50858160020160006101000a81548173ffffffffffffffffffffffffffffffffffffffff021916908373ffffffffffffffffffffffffffffffffffffffff160217905550848160020160146101000a81548160ff02191690836004811115610a9457610a936111b2565b5b021790555086816003019081610aaa91906118c6565b508381600401819055508281600501819055508181600601819055506000816007018190555080600901869080600181540180825580915050600190039060005260206000200160009091909190916101000a81548173ffffffffffffffffffffffffffffffffffffffff021916908373ffffffffffffffffffffffffffffffffffffffff160217905550818160080160008873ffffffffffffffffffffffffffffffffffffffff1673ffffffffffffffffffffffffffffffffffffffff1681526020019081526020016000206000828254610b869190611ad5565b9250508190555060036000815480929190610ba090611b09565b9190505550505050505050505050565b600060028281548110610bc657610bc561168b565b5b90600052602060002090600a02016005015484610be39190611a27565b60028381548110610bf757610bf661168b565b5b90600052602060002090600a02016004015486610c149190611a27565b610c1e9190611ad5565b9050806000808573ffffffffffffffffffffffffffffffffffffffff1673ffffffffffffffffffffffffffffffffffffffff168152602001908152602001600020541015610ca1576040517f08c379a0000000000000000000000000000000000000000000000000000000008152600401610c9890611b9d565b60405180910390fd5b806000808573ffffffffffffffffffffffffffffffffffffffff1673ffffffffffffffffffffffffffffffffffffffff1681526020019081526020016000206000828254610cef9190611bbd565b925050819055508060028381548110610d0b57610d0a61168b565b5b90600052602060002090600a02016007016000828254610d2b9190611ad5565b9250508190555060005b60028381548110610d4957610d4861168b565b5b90600052602060002090600a020160090180549050811015610ed157600060028481548110610d7b57610d7a61168b565b5b90600052602060002090600a02016009018281548110610d9e57610d9d61168b565b5b9060005260206000200160009054906101000a900473ffffffffffffffffffffffffffffffffffffffff169050600060028581548110610de157610de061168b565b5b90600052602060002090600a02016006015460028681548110610e0757610e0661168b565b5b90600052602060002090600a020160080160008473ffffffffffffffffffffffffffffffffffffffff1673ffffffffffffffffffffffffffffffffffffffff16815260200190815260200160002054610e6091906119f6565b84610e6b9190611a27565b9050806000808473ffffffffffffffffffffffffffffffffffffffff1673ffffffffffffffffffffffffffffffffffffffff1681526020019081526020016000206000828254610ebb9190611ad5565b9250508190555050508080600101915050610d35565b505050505050565b6000604051905090565b600080fd5b600080fd5b6000819050919050565b610f0081610eed565b8114610f0b57600080fd5b50565b600081359050610f1d81610ef7565b92915050565b600080fd5b600080fd5b6000601f19601f8301169050919050565b7f4e487b7100000000000000000000000000000000000000000000000000000000600052604160045260246000fd5b610f7682610f2d565b810181811067ffffffffffffffff82111715610f9557610f94610f3e565b5b80604052505050565b6000610fa8610ed9565b9050610fb48282610f6d565b919050565b600067ffffffffffffffff821115610fd457610fd3610f3e565b5b610fdd82610f2d565b9050602081019050919050565b82818337600083830152505050565b600061100c61100784610fb9565b610f9e565b90508281526020810184848401111561102857611027610f28565b5b611033848285610fea565b509392505050565b600082601f8301126110505761104f610f23565b5b8135611060848260208601610ff9565b91505092915050565b600080604083850312156110805761107f610ee3565b5b600061108e85828601610f0e565b925050602083013567ffffffffffffffff8111156110af576110ae610ee8565b5b6110bb8582860161103b565b9150509250929050565b6000602082840312156110db576110da610ee3565b5b60006110e984828501610f0e565b91505092915050565b600081519050919050565b600082825260208201905092915050565b60005b8381101561112c578082015181840152602081019050611111565b60008484015250505050565b6000611143826110f2565b61114d81856110fd565b935061115d81856020860161110e565b61116681610f2d565b840191505092915050565b600073ffffffffffffffffffffffffffffffffffffffff82169050919050565b600061119c82611171565b9050919050565b6111ac81611191565b82525050565b7f4e487b7100000000000000000000000000000000000000000000000000000000600052602160045260246000fd5b600581106111f2576111f16111b2565b5b50565b6000819050611203826111e1565b919050565b6000611213826111f5565b9050919050565b61122381611208565b82525050565b61123281610eed565b82525050565b6000610120820190508181036000830152611253818c611138565b90508181036020830152611267818b611138565b9050611276604083018a6111a3565b611283606083018961121a565b81810360808301526112958188611138565b90506112a460a0830187611229565b6112b160c0830186611229565b6112be60e0830185611229565b6112cc610100830184611229565b9a9950505050505050505050565b6112e381611191565b81146112ee57600080fd5b50565b600081359050611300816112da565b92915050565b60006020828403121561131c5761131b610ee3565b5b600061132a848285016112f1565b91505092915050565b600081519050919050565b600082825260208201905092915050565b6000819050602082019050919050565b61136881610eed565b82525050565b600061137a838361135f565b60208301905092915050565b6000602082019050919050565b600061139e82611333565b6113a8818561133e565b93506113b38361134f565b8060005b838110156113e45781516113cb888261136e565b97506113d683611386565b9250506001810190506113b7565b5085935050505092915050565b60006060820190506114066000830186611229565b81810360208301526114188185611393565b9050818103604083015261142c8184611393565b9050949350505050565b60008060006060848603121561144f5761144e610ee3565b5b600061145d86828701610f0e565b935050602061146e868287016112f1565b925050604061147f86828701610f0e565b9150509250925092565b6005811061149657600080fd5b50565b6000813590506114a881611489565b92915050565b600080600080600080600080610100898b0312156114cf576114ce610ee3565b5b600089013567ffffffffffffffff8111156114ed576114ec610ee8565b5b6114f98b828c0161103b565b985050602089013567ffffffffffffffff81111561151a57611519610ee8565b5b6115268b828c0161103b565b975050604089013567ffffffffffffffff81111561154757611546610ee8565b5b6115538b828c0161103b565b96505060606115648b828c016112f1565b95505060806115758b828c01611499565b94505060a06115868b828c01610f0e565b93505060c06115978b828c01610f0e565b92505060e06115a88b828c01610f0e565b9150509295985092959890939650565b600080600080608085870312156115d2576115d1610ee3565b5b60006115e087828801610f0e565b94505060206115f187828801610f0e565b9350506040611602878288016112f1565b925050606061161387828801610f0e565b91505092959194509250565b7f4f6e6c792061646d696e2063616e2075706461746520766563746f7220444200600082015250565b6000611655601f836110fd565b91506116608261161f565b602082019050919050565b6000602082019050818103600083015261168481611648565b9050919050565b7f4e487b7100000000000000000000000000000000000000000000000000000000600052603260045260246000fd5b7f4e487b7100000000000000000000000000000000000000000000000000000000600052602260045260246000fd5b6000600282049050600182168061170157607f821691505b602082108103611714576117136116ba565b5b50919050565b60008190508160005260206000209050919050565b60006020601f8301049050919050565b600082821b905092915050565b60006008830261177c7fffffffffffffffffffffffffffffffffffffffffffffffffffffffffffffffff8261173f565b611786868361173f565b95508019841693508086168417925050509392505050565b6000819050919050565b60006117c36117be6117b984610eed565b61179e565b610eed565b9050919050565b6000819050919050565b6117dd836117a8565b6117f16117e9826117ca565b84845461174c565b825550505050565b600090565b6118066117f9565b6118118184846117d4565b505050565b5b818110156118355761182a6000826117fe565b600181019050611817565b5050565b601f82111561187a5761184b8161171a565b6118548461172f565b81016020851015611863578190505b61187761186f8561172f565b830182611816565b50505b505050565b600082821c905092915050565b600061189d6000198460080261187f565b1980831691505092915050565b60006118b6838361188c565b9150826002028217905092915050565b6118cf826110f2565b67ffffffffffffffff8111156118e8576118e7610f3e565b5b6118f282546116e9565b6118fd828285611839565b600060209050601f831160018114611930576000841561191e578287015190505b61192885826118aa565b865550611990565b601f19841661193e8661171a565b60005b8281101561196657848901518255600182019150602085019450602081019050611941565b86831015611983578489015161197f601f89168261188c565b8355505b6001600288020188555050505b505050505050565b7f4e487b7100000000000000000000000000000000000000000000000000000000600052601260045260246000fd5b7f4e487b7100000000000000000000000000000000000000000000000000000000600052601160045260246000fd5b6000611a0182610eed565b9150611a0c83610eed565b925082611a1c57611a1b611998565b5b828204905092915050565b6000611a3282610eed565b9150611a3d83610eed565b9250828202611a4b81610eed565b91508282048414831517611a6257611a616119c7565b5b5092915050565b7f4f6e6c792061646d696e2063616e20636f6e7472696275746500000000000000600082015250565b6000611a9f6019836110fd565b9150611aaa82611a69565b602082019050919050565b60006020820190508181036000830152611ace81611a92565b9050919050565b6000611ae082610eed565b9150611aeb83610eed565b9250828201905080821115611b0357611b026119c7565b5b92915050565b6000611b1482610eed565b91507fffffffffffffffffffffffffffffffffffffffffffffffffffffffffffffffff8203611b4657611b456119c7565b5b600182019050919050565b7f496e73756666696369656e74207669727475616c2062616c616e636500000000600082015250565b6000611b87601c836110fd565b9150611b9282611b51565b602082019050919050565b60006020820190508181036000830152611bb681611b7a565b9050919050565b6000611bc882610eed565b9150611bd383610eed565b9250828203905081811115611beb57611bea6119c7565b5b9291505056fea2646970667358221220a77de27021158414d3c1103edde0bcbbff12ca5c7386d5b81b008f6fa633af9f64736f6c634300081c0033",
  "linkReferences": {},
  "deployedLinkReferences": {}
}