{
  "_format": "hh-sol-artifact-1",
  "contractName": "main",
  "sourceName": "src/main.sol",
  "abi": [
    {
      "inputs": [
        {
          "internalType": "address",
          "name": "rofl",
          "type": "address"
        }
      ],
      "stateMutability": "nonpayable",
      "type": "constructor"
    },
    {
      "inputs": [
        {
          "internalType": "uint256",
          "name": "in_token",
          "type": "uint256"
        },
        {
          "internalType": "uint256",
          "name": "out_token",
          "type": "uint256"
        },
        {
          "internalType": "address",
          "name": "user",
          "type": "address"
        },
        {
          "internalType": "uint256",
          "name": "campaignId",
          "type": "uint256"
        }
      ],
      "name": "chat",
      "outputs": [],
      "stateMutability": "nonpayable",
      "type": "function"
    },
    {
      "inputs": [
        {
          "internalType": "uint256",
          "name": "campaignId",
          "type": "uint256"
        },
        {
          "internalType": "address",
          "name": "contributer",
          "type": "address"
        },
        {
          "internalType": "uint256",
          "name": "data_token_amount",
          "type": "uint256"
        }
      ],
      "name": "contribute",
      "outputs": [],
      "stateMutability": "nonpayable",
      "type": "function"
    },
    {
      "inputs": [
        {
          "internalType": "string",
          "name": "name",
          "type": "string"
        },
        {
          "internalType": "string",
          "name": "description",
          "type": "string"
        },
        {
          "internalType": "string",
          "name": "vector_db_cid",
          "type": "string"
        },
        {
          "internalType": "address",
          "name": "owner",
          "type": "address"
        },
        {
          "internalType": "enum main.Category",
          "name": "category",
          "type": "uint8"
        },
        {
          "internalType": "uint256",
          "name": "in_token_price",
          "type": "uint256"
        },
        {
          "internalType": "uint256",
          "name": "out_token_price",
          "type": "uint256"
        },
        {
          "internalType": "uint256",
          "name": "initial_data_token",
          "type": "uint256"
        }
      ],
      "name": "createCampaign",
      "outputs": [],
      "stateMutability": "nonpayable",
      "type": "function"
    },
    {
      "inputs": [
        {
          "internalType": "uint256",
          "name": "campaignId",
          "type": "uint256"
        }
      ],
      "name": "getCampaign",
      "outputs": [
        {
          "internalType": "string",
          "name": "",
          "type": "string"
        },
        {
          "internalType": "string",
          "name": "",
          "type": "string"
        },
        {
          "internalType": "address",
          "name": "",
          "type": "address"
        },
        {
          "internalType": "enum main.Category",
          "name": "",
          "type": "uint8"
        },
        {
          "internalType": "string",
          "name": "",
          "type": "string"
        },
        {
          "internalType": "uint256",
          "name": "",
          "type": "uint256"
        },
        {
          "internalType": "uint256",
          "name": "",
          "type": "uint256"
        },
        {
          "internalType": "uint256",
          "name": "",
          "type": "uint256"
        },
        {
          "internalType": "uint256",
          "name": "",
          "type": "uint256"
        }
      ],
      "stateMutability": "view",
      "type": "function"
    },
    {
      "inputs": [
        {
          "internalType": "address",
          "name": "user",
          "type": "address"
        }
      ],
      "name": "getUser",
      "outputs": [
        {
          "internalType": "uint256",
          "name": "",
          "type": "uint256"
        },
        {
          "internalType": "uint256[]",
          "name": "",
          "type": "uint256[]"
        },
        {
          "internalType": "uint256[]",
          "name": "",
          "type": "uint256[]"
        }
      ],
      "stateMutability": "view",
      "type": "function"
    },
    {
      "inputs": [],
      "name": "stake",
      "outputs": [],
      "stateMutability": "payable",
      "type": "function"
    },
    {
      "inputs": [
        {
          "internalType": "uint256",
          "name": "campaignId",
          "type": "uint256"
        },
        {
          "internalType": "string",
          "name": "cid",
          "type": "string"
        }
      ],
      "name": "vector_db_update",
      "outputs": [],
      "stateMutability": "nonpayable",
      "type": "function"
    },
    {
      "inputs": [
        {
          "internalType": "uint256",
          "name": "amount",
          "type": "uint256"
        }
      ],
      "name": "withdraw",
      "outputs": [],
      "stateMutability": "nonpayable",
      "type": "function"
    }
  ],
  "bytecode": "0x608060405234801561001057600080fd5b50604051611f58380380611f58833981810160405281019061003291906100e4565b80600460006101000a81548173ffffffffffffffffffffffffffffffffffffffff021916908373ffffffffffffffffffffffffffffffffffffffff160217905550600060038190555050610111565b600080fd5b600073ffffffffffffffffffffffffffffffffffffffff82169050919050565b60006100b182610086565b9050919050565b6100c1816100a6565b81146100cc57600080fd5b50565b6000815190506100de816100b8565b92915050565b6000602082840312156100fa576100f9610081565b5b6000610108848285016100cf565b91505092915050565b611e38806101206000396000f3fe60806040526004361061007b5760003560e01c80636f77926b1161004e5780636f77926b146101215780638952ac1e14610160578063a3e8b4e814610189578063b871fa93146101b25761007b565b8063055bab39146100805780632e1a7d4d146100a95780633a4b66f1146100d25780635598f8cc146100dc575b600080fd5b34801561008c57600080fd5b506100a760048036038101906100a2919061127a565b6101db565b005b3480156100b557600080fd5b506100d060048036038101906100cb91906112d6565b6102a2565b005b6100da6103c2565b005b3480156100e857600080fd5b5061010360048036038101906100fe91906112d6565b610419565b60405161011899989796959493929190611449565b60405180910390f35b34801561012d57600080fd5b5061014860048036038101906101439190611517565b610668565b60405161015793929190611602565b60405180910390f35b34801561016c57600080fd5b5061018760048036038101906101829190611647565b6109b9565b005b34801561019557600080fd5b506101b060048036038101906101ab91906116bf565b610bef565b005b3480156101be57600080fd5b506101d960048036038101906101d491906117c9565b610dc1565b005b600460009054906101000a900473ffffffffffffffffffffffffffffffffffffffff1673ffffffffffffffffffffffffffffffffffffffff163373ffffffffffffffffffffffffffffffffffffffff161461026b576040517f08c379a00000000000000000000000000000000000000000000000000000000081526004016102629061187c565b60405180910390fd5b80600283815481106102805761027f61189c565b5b90600052602060002090600a0201600301908161029d9190611ad7565b505050565b806000803373ffffffffffffffffffffffffffffffffffffffff1673ffffffffffffffffffffffffffffffffffffffff168152602001908152602001600020541015610323576040517f08c379a000000000000000000000000000000000000000000000000000000000815260040161031a90611bf5565b60405180910390fd5b806000803373ffffffffffffffffffffffffffffffffffffffff1673ffffffffffffffffffffffffffffffffffffffff16815260200190815260200160002060008282546103719190611c44565b925050819055503373ffffffffffffffffffffffffffffffffffffffff166108fc829081150290604051600060405180830381858888f193505050501580156103be573d6000803e3d6000fd5b5050565b346000803373ffffffffffffffffffffffffffffffffffffffff1673ffffffffffffffffffffffffffffffffffffffff16815260200190815260200160002060008282546104109190611c78565b92505081905550565b6060806000806060600080600080600060028b8154811061043d5761043c61189c565b5b90600052602060002090600a0201905080600001816001018260020160009054906101000a900473ffffffffffffffffffffffffffffffffffffffff168360020160149054906101000a900460ff168460030185600401548660050154876006015488600701548880546104b0906118fa565b80601f01602080910402602001604051908101604052809291908181526020018280546104dc906118fa565b80156105295780601f106104fe57610100808354040283529160200191610529565b820191906000526020600020905b81548152906001019060200180831161050c57829003601f168201915b5050505050985087805461053c906118fa565b80601f0160208091040260200160405190810160405280929190818152602001828054610568906118fa565b80156105b55780601f1061058a576101008083540402835291602001916105b5565b820191906000526020600020905b81548152906001019060200180831161059857829003601f168201915b505050505097508480546105c8906118fa565b80601f01602080910402602001604051908101604052809291908181526020018280546105f4906118fa565b80156106415780601f1061061657610100808354040283529160200191610641565b820191906000526020600020905b81548152906001019060200180831161062457829003601f168201915b50505050509450995099509950995099509950995099509950509193959799909294969850565b600060608060008060008673ffffffffffffffffffffffffffffffffffffffff1673ffffffffffffffffffffffffffffffffffffffff1681526020019081526020016000205490506000600160008773ffffffffffffffffffffffffffffffffffffffff1673ffffffffffffffffffffffffffffffffffffffff1681526020019081526020016000208054905067ffffffffffffffff81111561070e5761070d61114f565b5b60405190808252806020026020018201604052801561073c5781602001602082028036833780820191505090505b5090506000600160008873ffffffffffffffffffffffffffffffffffffffff1673ffffffffffffffffffffffffffffffffffffffff1681526020019081526020016000208054905067ffffffffffffffff81111561079d5761079c61114f565b5b6040519080825280602002602001820160405280156107cb5781602001602082028036833780820191505090505b50905060005b600160008973ffffffffffffffffffffffffffffffffffffffff1673ffffffffffffffffffffffffffffffffffffffff168152602001908152602001600020805490508110156109a5576000600160008a73ffffffffffffffffffffffffffffffffffffffff1673ffffffffffffffffffffffffffffffffffffffff168152602001908152602001600020828154811061086e5761086d61189c565b5b906000526020600020015490506002818154811061088f5761088e61189c565b5b90600052602060002090600a020160080160008a73ffffffffffffffffffffffffffffffffffffffff1673ffffffffffffffffffffffffffffffffffffffff168152602001908152602001600020548483815181106108f1576108f061189c565b5b602002602001018181525050600281815481106109115761091061189c565b5b90600052602060002090600a0201600601548483815181106109365761093561189c565b5b60200260200101516109489190611cdb565b6002828154811061095c5761095b61189c565b5b90600052602060002090600a0201600701546109789190611d0c565b83838151811061098b5761098a61189c565b5b6020026020010181815250505080806001019150506107d1565b508282829550955095505050509193909250565b600460009054906101000a900473ffffffffffffffffffffffffffffffffffffffff1673ffffffffffffffffffffffffffffffffffffffff163373ffffffffffffffffffffffffffffffffffffffff1614610a49576040517f08c379a0000000000000000000000000000000000000000000000000000000008152600401610a4090611d9a565b60405180910390fd5b8060028481548110610a5e57610a5d61189c565b5b90600052602060002090600a02016006016000828254610a7e9190611c78565b925050819055508060028481548110610a9a57610a9961189c565b5b90600052602060002090600a020160080160008473ffffffffffffffffffffffffffffffffffffffff1673ffffffffffffffffffffffffffffffffffffffff1681526020019081526020016000206000828254610af79190611c78565b9250508190555060028381548110610b1257610b1161189c565b5b90600052602060002090600a0201600901829080600181540180825580915050600190039060005260206000200160009091909190916101000a81548173ffffffffffffffffffffffffffffffffffffffff021916908373ffffffffffffffffffffffffffffffffffffffff160217905550600160008373ffffffffffffffffffffffffffffffffffffffff1673ffffffffffffffffffffffffffffffffffffffff168152602001908152602001600020839080600181540180825580915050600190039060005260206000200160009091909190915055505050565b6000600260035481548110610c0757610c0661189c565b5b90600052602060002090600a0201905088816000019081610c289190611ad7565b5087816001019081610c3a9190611ad7565b50858160020160006101000a81548173ffffffffffffffffffffffffffffffffffffffff021916908373ffffffffffffffffffffffffffffffffffffffff160217905550848160020160146101000a81548160ff02191690836004811115610ca557610ca46113c3565b5b021790555086816003019081610cbb9190611ad7565b508381600401819055508281600501819055508181600601819055506000816007018190555080600901869080600181540180825580915050600190039060005260206000200160009091909190916101000a81548173ffffffffffffffffffffffffffffffffffffffff021916908373ffffffffffffffffffffffffffffffffffffffff160217905550818160080160008873ffffffffffffffffffffffffffffffffffffffff1673ffffffffffffffffffffffffffffffffffffffff1681526020019081526020016000206000828254610d979190611c78565b9250508190555060036000815480929190610db190611dba565b9190505550505050505050505050565b600060028281548110610dd757610dd661189c565b5b90600052602060002090600a02016005015484610df49190611d0c565b60028381548110610e0857610e0761189c565b5b90600052602060002090600a02016004015486610e259190611d0c565b610e2f9190611c78565b9050806000808573ffffffffffffffffffffffffffffffffffffffff1673ffffffffffffffffffffffffffffffffffffffff168152602001908152602001600020541015610eb2576040517f08c379a0000000000000000000000000000000000000000000000000000000008152600401610ea990611bf5565b60405180910390fd5b806000808573ffffffffffffffffffffffffffffffffffffffff1673ffffffffffffffffffffffffffffffffffffffff1681526020019081526020016000206000828254610f009190611c44565b925050819055508060028381548110610f1c57610f1b61189c565b5b90600052602060002090600a02016007016000828254610f3c9190611c78565b9250508190555060005b60028381548110610f5a57610f5961189c565b5b90600052602060002090600a0201600901805490508110156110e257600060028481548110610f8c57610f8b61189c565b5b90600052602060002090600a02016009018281548110610faf57610fae61189c565b5b9060005260206000200160009054906101000a900473ffffffffffffffffffffffffffffffffffffffff169050600060028581548110610ff257610ff161189c565b5b90600052602060002090600a020160060154600286815481106110185761101761189c565b5b90600052602060002090600a020160080160008473ffffffffffffffffffffffffffffffffffffffff1673ffffffffffffffffffffffffffffffffffffffff168152602001908152602001600020546110719190611cdb565b8461107c9190611d0c565b9050806000808473ffffffffffffffffffffffffffffffffffffffff1673ffffffffffffffffffffffffffffffffffffffff16815260200190815260200160002060008282546110cc9190611c78565b9250508190555050508080600101915050610f46565b505050505050565b6000604051905090565b600080fd5b600080fd5b6000819050919050565b611111816110fe565b811461111c57600080fd5b50565b60008135905061112e81611108565b92915050565b600080fd5b600080fd5b6000601f19601f8301169050919050565b7f4e487b7100000000000000000000000000000000000000000000000000000000600052604160045260246000fd5b6111878261113e565b810181811067ffffffffffffffff821117156111a6576111a561114f565b5b80604052505050565b60006111b96110ea565b90506111c5828261117e565b919050565b600067ffffffffffffffff8211156111e5576111e461114f565b5b6111ee8261113e565b9050602081019050919050565b82818337600083830152505050565b600061121d611218846111ca565b6111af565b90508281526020810184848401111561123957611238611139565b5b6112448482856111fb565b509392505050565b600082601f83011261126157611260611134565b5b813561127184826020860161120a565b91505092915050565b60008060408385031215611291576112906110f4565b5b600061129f8582860161111f565b925050602083013567ffffffffffffffff8111156112c0576112bf6110f9565b5b6112cc8582860161124c565b9150509250929050565b6000602082840312156112ec576112eb6110f4565b5b60006112fa8482850161111f565b91505092915050565b600081519050919050565b600082825260208201905092915050565b60005b8381101561133d578082015181840152602081019050611322565b60008484015250505050565b600061135482611303565b61135e818561130e565b935061136e81856020860161131f565b6113778161113e565b840191505092915050565b600073ffffffffffffffffffffffffffffffffffffffff82169050919050565b60006113ad82611382565b9050919050565b6113bd816113a2565b82525050565b7f4e487b7100000000000000000000000000000000000000000000000000000000600052602160045260246000fd5b60058110611403576114026113c3565b5b50565b6000819050611414826113f2565b919050565b600061142482611406565b9050919050565b61143481611419565b82525050565b611443816110fe565b82525050565b6000610120820190508181036000830152611464818c611349565b90508181036020830152611478818b611349565b9050611487604083018a6113b4565b611494606083018961142b565b81810360808301526114a68188611349565b90506114b560a083018761143a565b6114c260c083018661143a565b6114cf60e083018561143a565b6114dd61010083018461143a565b9a9950505050505050505050565b6114f4816113a2565b81146114ff57600080fd5b50565b600081359050611511816114eb565b92915050565b60006020828403121561152d5761152c6110f4565b5b600061153b84828501611502565b91505092915050565b600081519050919050565b600082825260208201905092915050565b6000819050602082019050919050565b611579816110fe565b82525050565b600061158b8383611570565b60208301905092915050565b6000602082019050919050565b60006115af82611544565b6115b9818561154f565b93506115c483611560565b8060005b838110156115f55781516115dc888261157f565b97506115e783611597565b9250506001810190506115c8565b5085935050505092915050565b6000606082019050611617600083018661143a565b818103602083015261162981856115a4565b9050818103604083015261163d81846115a4565b9050949350505050565b6000806000606084860312156116605761165f6110f4565b5b600061166e8682870161111f565b935050602061167f86828701611502565b92505060406116908682870161111f565b9150509250925092565b600581106116a757600080fd5b50565b6000813590506116b98161169a565b92915050565b600080600080600080600080610100898b0312156116e0576116df6110f4565b5b600089013567ffffffffffffffff8111156116fe576116fd6110f9565b5b61170a8b828c0161124c565b985050602089013567ffffffffffffffff81111561172b5761172a6110f9565b5b6117378b828c0161124c565b975050604089013567ffffffffffffffff811115611758576117576110f9565b5b6117648b828c0161124c565b96505060606117758b828c01611502565b95505060806117868b828c016116aa565b94505060a06117978b828c0161111f565b93505060c06117a88b828c0161111f565b92505060e06117b98b828c0161111f565b9150509295985092959890939650565b600080600080608085870312156117e3576117e26110f4565b5b60006117f18782880161111f565b94505060206118028782880161111f565b935050604061181387828801611502565b92505060606118248782880161111f565b91505092959194509250565b7f4f6e6c792061646d696e2063616e2075706461746520766563746f7220444200600082015250565b6000611866601f8361130e565b915061187182611830565b602082019050919050565b6000602082019050818103600083015261189581611859565b9050919050565b7f4e487b7100000000000000000000000000000000000000000000000000000000600052603260045260246000fd5b7f4e487b7100000000000000000000000000000000000000000000000000000000600052602260045260246000fd5b6000600282049050600182168061191257607f821691505b602082108103611925576119246118cb565b5b50919050565b60008190508160005260206000209050919050565b60006020601f8301049050919050565b600082821b905092915050565b60006008830261198d7fffffffffffffffffffffffffffffffffffffffffffffffffffffffffffffffff82611950565b6119978683611950565b95508019841693508086168417925050509392505050565b6000819050919050565b60006119d46119cf6119ca846110fe565b6119af565b6110fe565b9050919050565b6000819050919050565b6119ee836119b9565b611a026119fa826119db565b84845461195d565b825550505050565b600090565b611a17611a0a565b611a228184846119e5565b505050565b5b81811015611a4657611a3b600082611a0f565b600181019050611a28565b5050565b601f821115611a8b57611a5c8161192b565b611a6584611940565b81016020851015611a74578190505b611a88611a8085611940565b830182611a27565b50505b505050565b600082821c905092915050565b6000611aae60001984600802611a90565b1980831691505092915050565b6000611ac78383611a9d565b9150826002028217905092915050565b611ae082611303565b67ffffffffffffffff811115611af957611af861114f565b5b611b0382546118fa565b611b0e828285611a4a565b600060209050601f831160018114611b415760008415611b2f578287015190505b611b398582611abb565b865550611ba1565b601f198416611b4f8661192b565b60005b82811015611b7757848901518255600182019150602085019450602081019050611b52565b86831015611b945784890151611b90601f891682611a9d565b8355505b6001600288020188555050505b505050505050565b7f496e73756666696369656e74207669727475616c2062616c616e636500000000600082015250565b6000611bdf601c8361130e565b9150611bea82611ba9565b602082019050919050565b60006020820190508181036000830152611c0e81611bd2565b9050919050565b7f4e487b7100000000000000000000000000000000000000000000000000000000600052601160045260246000fd5b6000611c4f826110fe565b9150611c5a836110fe565b9250828203905081811115611c7257611c71611c15565b5b92915050565b6000611c83826110fe565b9150611c8e836110fe565b9250828201905080821115611ca657611ca5611c15565b5b92915050565b7f4e487b7100000000000000000000000000000000000000000000000000000000600052601260045260246000fd5b6000611ce6826110fe565b9150611cf1836110fe565b925082611d0157611d00611cac565b5b828204905092915050565b6000611d17826110fe565b9150611d22836110fe565b9250828202611d30816110fe565b91508282048414831517611d4757611d46611c15565b5b5092915050565b7f4f6e6c792061646d696e2063616e20636f6e7472696275746500000000000000600082015250565b6000611d8460198361130e565b9150611d8f82611d4e565b602082019050919050565b60006020820190508181036000830152611db381611d77565b9050919050565b6000611dc5826110fe565b91507fffffffffffffffffffffffffffffffffffffffffffffffffffffffffffffffff8203611df757611df6611c15565b5b60018201905091905056fea264697066735822122031d57260a9099403b41ccb9ecba34bf0b73b44fd9ec5bfc09494f99ef81b028164736f6c634300081c0033",
  "linkReferences": {},
  "deployedLinkReferences": {}
}