{
  "_format": "hh-sol-artifact-1",
  "contractName": "main",
  "sourceName": "src/main.sol",
  "abi": [
    {
      "inputs": [
        {
          "internalType": "address",
          "name": "rofl",
          "type": "address"
        }
      ],
      "stateMutability": "nonpayable",
      "type": "constructor"
    },
    {
      "inputs": [],
      "name": "ReentrancyGuardReentrantCall",
      "type": "error"
    },
    {
      "inputs": [
        {
          "internalType": "address",
          "name": "token",
          "type": "address"
        }
      ],
      "name": "SafeERC20FailedOperation",
      "type": "error"
    },
    {
      "inputs": [
        {
          "internalType": "uint256",
          "name": "in_token",
          "type": "uint256"
        },
        {
          "internalType": "uint256",
          "name": "out_token",
          "type": "uint256"
        },
        {
          "internalType": "address",
          "name": "user",
          "type": "address"
        },
        {
          "internalType": "uint256",
          "name": "campaignId",
          "type": "uint256"
        }
      ],
      "name": "chat",
      "outputs": [],
      "stateMutability": "nonpayable",
      "type": "function"
    },
    {
      "inputs": [
        {
          "internalType": "uint256",
          "name": "campaignId",
          "type": "uint256"
        },
        {
          "internalType": "address",
          "name": "contributer",
          "type": "address"
        },
        {
          "internalType": "uint256",
          "name": "data_token_amount",
          "type": "uint256"
        },
        {
          "internalType": "string",
          "name": "cid",
          "type": "string"
        }
      ],
      "name": "contribute",
      "outputs": [],
      "stateMutability": "nonpayable",
      "type": "function"
    },
    {
      "inputs": [
        {
          "internalType": "string",
          "name": "name",
          "type": "string"
        },
        {
          "internalType": "string",
          "name": "description",
          "type": "string"
        },
        {
          "internalType": "string",
          "name": "vector_db_cid",
          "type": "string"
        },
        {
          "internalType": "address",
          "name": "owner",
          "type": "address"
        },
        {
          "internalType": "enum main.Category",
          "name": "category",
          "type": "uint8"
        },
        {
          "internalType": "uint256",
          "name": "in_token_price",
          "type": "uint256"
        },
        {
          "internalType": "uint256",
          "name": "out_token_price",
          "type": "uint256"
        },
        {
          "internalType": "uint256",
          "name": "initial_data_token",
          "type": "uint256"
        }
      ],
      "name": "createCampaign",
      "outputs": [],
      "stateMutability": "nonpayable",
      "type": "function"
    },
    {
      "inputs": [
        {
          "internalType": "uint256",
          "name": "campaignId",
          "type": "uint256"
        }
      ],
      "name": "getCampaign",
      "outputs": [
        {
          "internalType": "string",
          "name": "",
          "type": "string"
        },
        {
          "internalType": "string",
          "name": "",
          "type": "string"
        },
        {
          "internalType": "address",
          "name": "",
          "type": "address"
        },
        {
          "internalType": "enum main.Category",
          "name": "",
          "type": "uint8"
        },
        {
          "internalType": "string",
          "name": "",
          "type": "string"
        },
        {
          "internalType": "uint256",
          "name": "",
          "type": "uint256"
        },
        {
          "internalType": "uint256",
          "name": "",
          "type": "uint256"
        },
        {
          "internalType": "uint256",
          "name": "",
          "type": "uint256"
        },
        {
          "internalType": "uint256",
          "name": "",
          "type": "uint256"
        }
      ],
      "stateMutability": "view",
      "type": "function"
    },
    {
      "inputs": [
        {
          "internalType": "address",
          "name": "user",
          "type": "address"
        }
      ],
      "name": "getUser",
      "outputs": [
        {
          "internalType": "uint256",
          "name": "",
          "type": "uint256"
        },
        {
          "internalType": "uint256[]",
          "name": "",
          "type": "uint256[]"
        },
        {
          "internalType": "uint256[]",
          "name": "",
          "type": "uint256[]"
        }
      ],
      "stateMutability": "view",
      "type": "function"
    },
    {
      "inputs": [
        {
          "internalType": "address",
          "name": "user",
          "type": "address"
        }
      ],
      "name": "getUserBalance",
      "outputs": [
        {
          "internalType": "uint256",
          "name": "",
          "type": "uint256"
        }
      ],
      "stateMutability": "view",
      "type": "function"
    },
    {
      "inputs": [],
      "name": "get_campaigns_length",
      "outputs": [
        {
          "internalType": "uint256",
          "name": "",
          "type": "uint256"
        }
      ],
      "stateMutability": "view",
      "type": "function"
    },
    {
      "inputs": [
        {
          "internalType": "uint256",
          "name": "amount",
          "type": "uint256"
        }
      ],
      "name": "stake",
      "outputs": [],
      "stateMutability": "nonpayable",
      "type": "function"
    },
    {
      "inputs": [],
      "name": "usdc",
      "outputs": [
        {
          "internalType": "contract IERC20",
          "name": "",
          "type": "address"
        }
      ],
      "stateMutability": "view",
      "type": "function"
    },
    {
      "inputs": [
        {
          "internalType": "uint256",
          "name": "campaignId",
          "type": "uint256"
        },
        {
          "internalType": "string",
          "name": "cid",
          "type": "string"
        }
      ],
      "name": "vector_db_update",
      "outputs": [],
      "stateMutability": "nonpayable",
      "type": "function"
    },
    {
      "inputs": [
        {
          "internalType": "uint256",
          "name": "amount",
          "type": "uint256"
        }
      ],
      "name": "withdraw",
      "outputs": [],
      "stateMutability": "nonpayable",
      "type": "function"
    }
  ],
  "bytecode": "0x60a0604052731c7d4b196cb0c7b01d743fbc6116a902379c723873ffffffffffffffffffffffffffffffffffffffff1660809073ffffffffffffffffffffffffffffffffffffffff1681525034801561005757600080fd5b5060405161265738038061265783398181016040528101906100799190610133565b600160008190555080600560006101000a81548173ffffffffffffffffffffffffffffffffffffffff021916908373ffffffffffffffffffffffffffffffffffffffff160217905550600060048190555050610160565b600080fd5b600073ffffffffffffffffffffffffffffffffffffffff82169050919050565b6000610100826100d5565b9050919050565b610110816100f5565b811461011b57600080fd5b50565b60008151905061012d81610107565b92915050565b600060208284031215610149576101486100d0565b5b60006101578482850161011e565b91505092915050565b6080516124ce6101896000396000818161041d0152818161046e0152610fa001526124ce6000f3fe608060405234801561001057600080fd5b50600436106100a95760003560e01c80636f77926b116100715780636f77926b1461016c578063855d2e941461019e578063a3e8b4e8146101ba578063a694fc3a146101d6578063b871fa93146101f2578063d2e40f3e1461020e576100a9565b8063055bab39146100ae5780632e1a7d4d146100ca5780633e413bee146100e657806347734892146101045780635598f8cc14610134575b600080fd5b6100c860048036038101906100c39190611702565b61022c565b005b6100e460048036038101906100df919061175e565b6102f3565b005b6100ee61046c565b6040516100fb919061180a565b60405180910390f35b61011e60048036038101906101199190611863565b610490565b60405161012b919061189f565b60405180910390f35b61014e6004803603810190610149919061175e565b6104d9565b604051610163999897969594939291906119bf565b60405180910390f35b61018660048036038101906101819190611863565b610728565b60405161019593929190611b1f565b60405180910390f35b6101b860048036038101906101b39190611b64565b610a7a565b005b6101d460048036038101906101cf9190611c0c565b610d4e565b005b6101f060048036038101906101eb919061175e565b610f4d565b005b61020c60048036038101906102079190611d16565b611046565b005b610216611372565b604051610223919061189f565b60405180910390f35b600560009054906101000a900473ffffffffffffffffffffffffffffffffffffffff1673ffffffffffffffffffffffffffffffffffffffff163373ffffffffffffffffffffffffffffffffffffffff16146102bc576040517f08c379a00000000000000000000000000000000000000000000000000000000081526004016102b390611dc9565b60405180910390fd5b80600383815481106102d1576102d0611de9565b5b90600052602060002090600a020160030190816102ee919061201a565b505050565b6102fb61137f565b6000811161033e576040517f08c379a000000000000000000000000000000000000000000000000000000000815260040161033590612138565b60405180910390fd5b80600160003373ffffffffffffffffffffffffffffffffffffffff1673ffffffffffffffffffffffffffffffffffffffff1681526020019081526020016000205410156103c0576040517f08c379a00000000000000000000000000000000000000000000000000000000081526004016103b7906121a4565b60405180910390fd5b80600160003373ffffffffffffffffffffffffffffffffffffffff1673ffffffffffffffffffffffffffffffffffffffff168152602001908152602001600020600082825461040f91906121f3565b9250508190555061046133827f000000000000000000000000000000000000000000000000000000000000000073ffffffffffffffffffffffffffffffffffffffff166113c59092919063ffffffff16565b610469611444565b50565b7f000000000000000000000000000000000000000000000000000000000000000081565b6000600160008373ffffffffffffffffffffffffffffffffffffffff1673ffffffffffffffffffffffffffffffffffffffff168152602001908152602001600020549050919050565b6060806000806060600080600080600060038b815481106104fd576104fc611de9565b5b90600052602060002090600a0201905080600001816001018260020160009054906101000a900473ffffffffffffffffffffffffffffffffffffffff168360020160149054906101000a900460ff1684600301856004015486600501548760060154886007015488805461057090611e47565b80601f016020809104026020016040519081016040528092919081815260200182805461059c90611e47565b80156105e95780601f106105be576101008083540402835291602001916105e9565b820191906000526020600020905b8154815290600101906020018083116105cc57829003601f168201915b505050505098508780546105fc90611e47565b80601f016020809104026020016040519081016040528092919081815260200182805461062890611e47565b80156106755780601f1061064a57610100808354040283529160200191610675565b820191906000526020600020905b81548152906001019060200180831161065857829003601f168201915b5050505050975084805461068890611e47565b80601f01602080910402602001604051908101604052809291908181526020018280546106b490611e47565b80156107015780601f106106d657610100808354040283529160200191610701565b820191906000526020600020905b8154815290600101906020018083116106e457829003601f168201915b50505050509450995099509950995099509950995099509950509193959799909294969850565b60006060806000600160008673ffffffffffffffffffffffffffffffffffffffff1673ffffffffffffffffffffffffffffffffffffffff1681526020019081526020016000205490506000600260008773ffffffffffffffffffffffffffffffffffffffff1673ffffffffffffffffffffffffffffffffffffffff1681526020019081526020016000208054905067ffffffffffffffff8111156107cf576107ce6115d7565b5b6040519080825280602002602001820160405280156107fd5781602001602082028036833780820191505090505b5090506000600260008873ffffffffffffffffffffffffffffffffffffffff1673ffffffffffffffffffffffffffffffffffffffff1681526020019081526020016000208054905067ffffffffffffffff81111561085e5761085d6115d7565b5b60405190808252806020026020018201604052801561088c5781602001602082028036833780820191505090505b50905060005b600260008973ffffffffffffffffffffffffffffffffffffffff1673ffffffffffffffffffffffffffffffffffffffff16815260200190815260200160002080549050811015610a66576000600260008a73ffffffffffffffffffffffffffffffffffffffff1673ffffffffffffffffffffffffffffffffffffffff168152602001908152602001600020828154811061092f5761092e611de9565b5b90600052602060002001549050600381815481106109505761094f611de9565b5b90600052602060002090600a020160080160008a73ffffffffffffffffffffffffffffffffffffffff1673ffffffffffffffffffffffffffffffffffffffff168152602001908152602001600020548483815181106109b2576109b1611de9565b5b602002602001018181525050600381815481106109d2576109d1611de9565b5b90600052602060002090600a0201600601548483815181106109f7576109f6611de9565b5b6020026020010151610a099190612256565b60038281548110610a1d57610a1c611de9565b5b90600052602060002090600a020160070154610a399190612287565b838381518110610a4c57610a4b611de9565b5b602002602001018181525050508080600101915050610892565b508282829550955095505050509193909250565b600560009054906101000a900473ffffffffffffffffffffffffffffffffffffffff1673ffffffffffffffffffffffffffffffffffffffff163373ffffffffffffffffffffffffffffffffffffffff1614610b0a576040517f08c379a0000000000000000000000000000000000000000000000000000000008152600401610b0190612315565b60405180910390fd5b8160038581548110610b1f57610b1e611de9565b5b90600052602060002090600a02016006016000828254610b3f9190612335565b925050819055508160038581548110610b5b57610b5a611de9565b5b90600052602060002090600a020160080160008573ffffffffffffffffffffffffffffffffffffffff1673ffffffffffffffffffffffffffffffffffffffff1681526020019081526020016000206000828254610bb89190612335565b925050819055508060038581548110610bd457610bd3611de9565b5b90600052602060002090600a02016003019081610bf1919061201a565b508160038581548110610c0757610c06611de9565b5b90600052602060002090600a020160080160008573ffffffffffffffffffffffffffffffffffffffff1673ffffffffffffffffffffffffffffffffffffffff1681526020019081526020016000205403610d485760038481548110610c6f57610c6e611de9565b5b90600052602060002090600a0201600901839080600181540180825580915050600190039060005260206000200160009091909190916101000a81548173ffffffffffffffffffffffffffffffffffffffff021916908373ffffffffffffffffffffffffffffffffffffffff160217905550600260008473ffffffffffffffffffffffffffffffffffffffff1673ffffffffffffffffffffffffffffffffffffffff1681526020019081526020016000208490806001815401808255809150506001900390600052602060002001600090919091909150555b50505050565b600360018160018154018082558091505003906000526020600020905050600060036001600380549050610d8291906121f3565b81548110610d9357610d92611de9565b5b90600052602060002090600a0201905088816000019081610db4919061201a565b5087816001019081610dc6919061201a565b50858160020160006101000a81548173ffffffffffffffffffffffffffffffffffffffff021916908373ffffffffffffffffffffffffffffffffffffffff160217905550848160020160146101000a81548160ff02191690836004811115610e3157610e30611948565b5b021790555086816003019081610e47919061201a565b508381600401819055508281600501819055508181600601819055506000816007018190555080600901869080600181540180825580915050600190039060005260206000200160009091909190916101000a81548173ffffffffffffffffffffffffffffffffffffffff021916908373ffffffffffffffffffffffffffffffffffffffff160217905550818160080160008873ffffffffffffffffffffffffffffffffffffffff1673ffffffffffffffffffffffffffffffffffffffff1681526020019081526020016000206000828254610f239190612335565b9250508190555060046000815480929190610f3d90612369565b9190505550505050505050505050565b610f5561137f565b60008111610f98576040517f08c379a0000000000000000000000000000000000000000000000000000000008152600401610f8f90612138565b60405180910390fd5b610fe53330837f000000000000000000000000000000000000000000000000000000000000000073ffffffffffffffffffffffffffffffffffffffff1661144e909392919063ffffffff16565b80600160003373ffffffffffffffffffffffffffffffffffffffff1673ffffffffffffffffffffffffffffffffffffffff16815260200190815260200160002060008282546110349190612335565b92505081905550611043611444565b50565b60006003828154811061105c5761105b611de9565b5b90600052602060002090600a020160050154846110799190612287565b6003838154811061108d5761108c611de9565b5b90600052602060002090600a020160040154866110aa9190612287565b6110b49190612335565b905080600160008573ffffffffffffffffffffffffffffffffffffffff1673ffffffffffffffffffffffffffffffffffffffff168152602001908152602001600020541015611138576040517f08c379a000000000000000000000000000000000000000000000000000000000815260040161112f906123fd565b60405180910390fd5b80600160008573ffffffffffffffffffffffffffffffffffffffff1673ffffffffffffffffffffffffffffffffffffffff168152602001908152602001600020600082825461118791906121f3565b9250508190555080600383815481106111a3576111a2611de9565b5b90600052602060002090600a020160070160008282546111c39190612335565b9250508190555060005b600383815481106111e1576111e0611de9565b5b90600052602060002090600a02016009018054905081101561136a5760006003848154811061121357611212611de9565b5b90600052602060002090600a0201600901828154811061123657611235611de9565b5b9060005260206000200160009054906101000a900473ffffffffffffffffffffffffffffffffffffffff16905060006003858154811061127957611278611de9565b5b90600052602060002090600a0201600601546003868154811061129f5761129e611de9565b5b90600052602060002090600a020160080160008473ffffffffffffffffffffffffffffffffffffffff1673ffffffffffffffffffffffffffffffffffffffff168152602001908152602001600020546112f89190612256565b846113039190612287565b905080600160008473ffffffffffffffffffffffffffffffffffffffff1673ffffffffffffffffffffffffffffffffffffffff16815260200190815260200160002060008282546113549190612335565b92505081905550505080806001019150506111cd565b505050505050565b6000600380549050905090565b6002600054036113bb576040517f3ee5aeb500000000000000000000000000000000000000000000000000000000815260040160405180910390fd5b6002600081905550565b61143f838473ffffffffffffffffffffffffffffffffffffffff1663a9059cbb85856040516024016113f892919061241d565b604051602081830303815290604052915060e01b6020820180517bffffffffffffffffffffffffffffffffffffffffffffffffffffffff83818316178352505050506114d0565b505050565b6001600081905550565b6114ca848573ffffffffffffffffffffffffffffffffffffffff166323b872dd86868660405160240161148393929190612446565b604051602081830303815290604052915060e01b6020820180517bffffffffffffffffffffffffffffffffffffffffffffffffffffffff83818316178352505050506114d0565b50505050565b600080602060008451602086016000885af1806114f3576040513d6000823e3d81fd5b3d92506000519150506000821461150e57600181141561152a565b60008473ffffffffffffffffffffffffffffffffffffffff163b145b1561156c57836040517f5274afe7000000000000000000000000000000000000000000000000000000008152600401611563919061247d565b60405180910390fd5b50505050565b6000604051905090565b600080fd5b600080fd5b6000819050919050565b61159981611586565b81146115a457600080fd5b50565b6000813590506115b681611590565b92915050565b600080fd5b600080fd5b6000601f19601f8301169050919050565b7f4e487b7100000000000000000000000000000000000000000000000000000000600052604160045260246000fd5b61160f826115c6565b810181811067ffffffffffffffff8211171561162e5761162d6115d7565b5b80604052505050565b6000611641611572565b905061164d8282611606565b919050565b600067ffffffffffffffff82111561166d5761166c6115d7565b5b611676826115c6565b9050602081019050919050565b82818337600083830152505050565b60006116a56116a084611652565b611637565b9050828152602081018484840111156116c1576116c06115c1565b5b6116cc848285611683565b509392505050565b600082601f8301126116e9576116e86115bc565b5b81356116f9848260208601611692565b91505092915050565b600080604083850312156117195761171861157c565b5b6000611727858286016115a7565b925050602083013567ffffffffffffffff81111561174857611747611581565b5b611754858286016116d4565b9150509250929050565b6000602082840312156117745761177361157c565b5b6000611782848285016115a7565b91505092915050565b600073ffffffffffffffffffffffffffffffffffffffff82169050919050565b6000819050919050565b60006117d06117cb6117c68461178b565b6117ab565b61178b565b9050919050565b60006117e2826117b5565b9050919050565b60006117f4826117d7565b9050919050565b611804816117e9565b82525050565b600060208201905061181f60008301846117fb565b92915050565b60006118308261178b565b9050919050565b61184081611825565b811461184b57600080fd5b50565b60008135905061185d81611837565b92915050565b6000602082840312156118795761187861157c565b5b60006118878482850161184e565b91505092915050565b61189981611586565b82525050565b60006020820190506118b46000830184611890565b92915050565b600081519050919050565b600082825260208201905092915050565b60005b838110156118f45780820151818401526020810190506118d9565b60008484015250505050565b600061190b826118ba565b61191581856118c5565b93506119258185602086016118d6565b61192e816115c6565b840191505092915050565b61194281611825565b82525050565b7f4e487b7100000000000000000000000000000000000000000000000000000000600052602160045260246000fd5b6005811061198857611987611948565b5b50565b600081905061199982611977565b919050565b60006119a98261198b565b9050919050565b6119b98161199e565b82525050565b60006101208201905081810360008301526119da818c611900565b905081810360208301526119ee818b611900565b90506119fd604083018a611939565b611a0a60608301896119b0565b8181036080830152611a1c8188611900565b9050611a2b60a0830187611890565b611a3860c0830186611890565b611a4560e0830185611890565b611a53610100830184611890565b9a9950505050505050505050565b600081519050919050565b600082825260208201905092915050565b6000819050602082019050919050565b611a9681611586565b82525050565b6000611aa88383611a8d565b60208301905092915050565b6000602082019050919050565b6000611acc82611a61565b611ad68185611a6c565b9350611ae183611a7d565b8060005b83811015611b12578151611af98882611a9c565b9750611b0483611ab4565b925050600181019050611ae5565b5085935050505092915050565b6000606082019050611b346000830186611890565b8181036020830152611b468185611ac1565b90508181036040830152611b5a8184611ac1565b9050949350505050565b60008060008060808587031215611b7e57611b7d61157c565b5b6000611b8c878288016115a7565b9450506020611b9d8782880161184e565b9350506040611bae878288016115a7565b925050606085013567ffffffffffffffff811115611bcf57611bce611581565b5b611bdb878288016116d4565b91505092959194509250565b60058110611bf457600080fd5b50565b600081359050611c0681611be7565b92915050565b600080600080600080600080610100898b031215611c2d57611c2c61157c565b5b600089013567ffffffffffffffff811115611c4b57611c4a611581565b5b611c578b828c016116d4565b985050602089013567ffffffffffffffff811115611c7857611c77611581565b5b611c848b828c016116d4565b975050604089013567ffffffffffffffff811115611ca557611ca4611581565b5b611cb18b828c016116d4565b9650506060611cc28b828c0161184e565b9550506080611cd38b828c01611bf7565b94505060a0611ce48b828c016115a7565b93505060c0611cf58b828c016115a7565b92505060e0611d068b828c016115a7565b9150509295985092959890939650565b60008060008060808587031215611d3057611d2f61157c565b5b6000611d3e878288016115a7565b9450506020611d4f878288016115a7565b9350506040611d608782880161184e565b9250506060611d71878288016115a7565b91505092959194509250565b7f4f6e6c792061646d696e2063616e2075706461746520766563746f7220444200600082015250565b6000611db3601f836118c5565b9150611dbe82611d7d565b602082019050919050565b60006020820190508181036000830152611de281611da6565b9050919050565b7f4e487b7100000000000000000000000000000000000000000000000000000000600052603260045260246000fd5b7f4e487b7100000000000000000000000000000000000000000000000000000000600052602260045260246000fd5b60006002820490506001821680611e5f57607f821691505b602082108103611e7257611e71611e18565b5b50919050565b60008190508160005260206000209050919050565b60006020601f8301049050919050565b600082821b905092915050565b600060088302611eda7fffffffffffffffffffffffffffffffffffffffffffffffffffffffffffffffff82611e9d565b611ee48683611e9d565b95508019841693508086168417925050509392505050565b6000611f17611f12611f0d84611586565b6117ab565b611586565b9050919050565b6000819050919050565b611f3183611efc565b611f45611f3d82611f1e565b848454611eaa565b825550505050565b600090565b611f5a611f4d565b611f65818484611f28565b505050565b5b81811015611f8957611f7e600082611f52565b600181019050611f6b565b5050565b601f821115611fce57611f9f81611e78565b611fa884611e8d565b81016020851015611fb7578190505b611fcb611fc385611e8d565b830182611f6a565b50505b505050565b600082821c905092915050565b6000611ff160001984600802611fd3565b1980831691505092915050565b600061200a8383611fe0565b9150826002028217905092915050565b612023826118ba565b67ffffffffffffffff81111561203c5761203b6115d7565b5b6120468254611e47565b612051828285611f8d565b600060209050601f8311600181146120845760008415612072578287015190505b61207c8582611ffe565b8655506120e4565b601f19841661209286611e78565b60005b828110156120ba57848901518255600182019150602085019450602081019050612095565b868310156120d757848901516120d3601f891682611fe0565b8355505b6001600288020188555050505b505050505050565b7f616d6f756e74203d203000000000000000000000000000000000000000000000600082015250565b6000612122600a836118c5565b915061212d826120ec565b602082019050919050565b6000602082019050818103600083015261215181612115565b9050919050565b7f696e73756666696369656e742062616c616e6365000000000000000000000000600082015250565b600061218e6014836118c5565b915061219982612158565b602082019050919050565b600060208201905081810360008301526121bd81612181565b9050919050565b7f4e487b7100000000000000000000000000000000000000000000000000000000600052601160045260246000fd5b60006121fe82611586565b915061220983611586565b9250828203905081811115612221576122206121c4565b5b92915050565b7f4e487b7100000000000000000000000000000000000000000000000000000000600052601260045260246000fd5b600061226182611586565b915061226c83611586565b92508261227c5761227b612227565b5b828204905092915050565b600061229282611586565b915061229d83611586565b92508282026122ab81611586565b915082820484148315176122c2576122c16121c4565b5b5092915050565b7f4f6e6c792061646d696e2063616e20636f6e7472696275746500000000000000600082015250565b60006122ff6019836118c5565b915061230a826122c9565b602082019050919050565b6000602082019050818103600083015261232e816122f2565b9050919050565b600061234082611586565b915061234b83611586565b9250828201905080821115612363576123626121c4565b5b92915050565b600061237482611586565b91507fffffffffffffffffffffffffffffffffffffffffffffffffffffffffffffffff82036123a6576123a56121c4565b5b600182019050919050565b7f496e73756666696369656e74207669727475616c2062616c616e636500000000600082015250565b60006123e7601c836118c5565b91506123f2826123b1565b602082019050919050565b60006020820190508181036000830152612416816123da565b9050919050565b60006040820190506124326000830185611939565b61243f6020830184611890565b9392505050565b600060608201905061245b6000830186611939565b6124686020830185611939565b6124756040830184611890565b949350505050565b60006020820190506124926000830184611939565b9291505056fea2646970667358221220b0ed3b7754f02b243631ae2051c3113177a65c4a492c335413376512974768ee64736f6c634300081c0033",
  "linkReferences": {},
  "deployedLinkReferences": {}
}