{
  "_format": "hh-sol-artifact-1",
  "contractName": "main",
  "sourceName": "src/main.sol",
  "abi": [
    {
      "inputs": [
        {
          "internalType": "address",
          "name": "rofl",
          "type": "address"
        }
      ],
      "stateMutability": "nonpayable",
      "type": "constructor"
    },
    {
      "inputs": [],
      "name": "ReentrancyGuardReentrantCall",
      "type": "error"
    },
    {
      "inputs": [
        {
          "internalType": "address",
          "name": "token",
          "type": "address"
        }
      ],
      "name": "SafeERC20FailedOperation",
      "type": "error"
    },
    {
      "inputs": [
        {
          "internalType": "uint256",
          "name": "in_token",
          "type": "uint256"
        },
        {
          "internalType": "uint256",
          "name": "out_token",
          "type": "uint256"
        },
        {
          "internalType": "address",
          "name": "user",
          "type": "address"
        },
        {
          "internalType": "uint256",
          "name": "campaignId",
          "type": "uint256"
        }
      ],
      "name": "chat",
      "outputs": [],
      "stateMutability": "nonpayable",
      "type": "function"
    },
    {
      "inputs": [
        {
          "internalType": "uint256",
          "name": "campaignId",
          "type": "uint256"
        },
        {
          "internalType": "address",
          "name": "contributer",
          "type": "address"
        },
        {
          "internalType": "uint256",
          "name": "data_token_amount",
          "type": "uint256"
        }
      ],
      "name": "contribute",
      "outputs": [],
      "stateMutability": "nonpayable",
      "type": "function"
    },
    {
      "inputs": [
        {
          "internalType": "string",
          "name": "name",
          "type": "string"
        },
        {
          "internalType": "string",
          "name": "description",
          "type": "string"
        },
        {
          "internalType": "string",
          "name": "vector_db_cid",
          "type": "string"
        },
        {
          "internalType": "address",
          "name": "owner",
          "type": "address"
        },
        {
          "internalType": "enum main.Category",
          "name": "category",
          "type": "uint8"
        },
        {
          "internalType": "uint256",
          "name": "in_token_price",
          "type": "uint256"
        },
        {
          "internalType": "uint256",
          "name": "out_token_price",
          "type": "uint256"
        },
        {
          "internalType": "uint256",
          "name": "initial_data_token",
          "type": "uint256"
        }
      ],
      "name": "createCampaign",
      "outputs": [],
      "stateMutability": "nonpayable",
      "type": "function"
    },
    {
      "inputs": [
        {
          "internalType": "uint256",
          "name": "campaignId",
          "type": "uint256"
        }
      ],
      "name": "getCampaign",
      "outputs": [
        {
          "internalType": "string",
          "name": "",
          "type": "string"
        },
        {
          "internalType": "string",
          "name": "",
          "type": "string"
        },
        {
          "internalType": "address",
          "name": "",
          "type": "address"
        },
        {
          "internalType": "enum main.Category",
          "name": "",
          "type": "uint8"
        },
        {
          "internalType": "string",
          "name": "",
          "type": "string"
        },
        {
          "internalType": "uint256",
          "name": "",
          "type": "uint256"
        },
        {
          "internalType": "uint256",
          "name": "",
          "type": "uint256"
        },
        {
          "internalType": "uint256",
          "name": "",
          "type": "uint256"
        },
        {
          "internalType": "uint256",
          "name": "",
          "type": "uint256"
        }
      ],
      "stateMutability": "view",
      "type": "function"
    },
    {
      "inputs": [
        {
          "internalType": "address",
          "name": "user",
          "type": "address"
        }
      ],
      "name": "getUser",
      "outputs": [
        {
          "internalType": "uint256",
          "name": "",
          "type": "uint256"
        },
        {
          "internalType": "uint256[]",
          "name": "",
          "type": "uint256[]"
        },
        {
          "internalType": "uint256[]",
          "name": "",
          "type": "uint256[]"
        }
      ],
      "stateMutability": "view",
      "type": "function"
    },
    {
      "inputs": [
        {
          "internalType": "address",
          "name": "user",
          "type": "address"
        }
      ],
      "name": "getUserBalance",
      "outputs": [
        {
          "internalType": "uint256",
          "name": "",
          "type": "uint256"
        }
      ],
      "stateMutability": "view",
      "type": "function"
    },
    {
      "inputs": [],
      "name": "get_campaigns_length",
      "outputs": [
        {
          "internalType": "uint256",
          "name": "",
          "type": "uint256"
        }
      ],
      "stateMutability": "view",
      "type": "function"
    },
    {
      "inputs": [
        {
          "internalType": "uint256",
          "name": "amount",
          "type": "uint256"
        }
      ],
      "name": "stake",
      "outputs": [],
      "stateMutability": "nonpayable",
      "type": "function"
    },
    {
      "inputs": [],
      "name": "usdc",
      "outputs": [
        {
          "internalType": "contract IERC20",
          "name": "",
          "type": "address"
        }
      ],
      "stateMutability": "view",
      "type": "function"
    },
    {
      "inputs": [
        {
          "internalType": "uint256",
          "name": "campaignId",
          "type": "uint256"
        },
        {
          "internalType": "string",
          "name": "cid",
          "type": "string"
        }
      ],
      "name": "vector_db_update",
      "outputs": [],
      "stateMutability": "nonpayable",
      "type": "function"
    },
    {
      "inputs": [
        {
          "internalType": "uint256",
          "name": "amount",
          "type": "uint256"
        }
      ],
      "name": "withdraw",
      "outputs": [],
      "stateMutability": "nonpayable",
      "type": "function"
    }
  ],
  "bytecode": "0x60a0604052731c7d4b196cb0c7b01d743fbc6116a902379c723873ffffffffffffffffffffffffffffffffffffffff1660809073ffffffffffffffffffffffffffffffffffffffff1681525034801561005757600080fd5b506040516125f33803806125f383398181016040528101906100799190610133565b600160008190555080600560006101000a81548173ffffffffffffffffffffffffffffffffffffffff021916908373ffffffffffffffffffffffffffffffffffffffff160217905550600060048190555050610160565b600080fd5b600073ffffffffffffffffffffffffffffffffffffffff82169050919050565b6000610100826100d5565b9050919050565b610110816100f5565b811461011b57600080fd5b50565b60008151905061012d81610107565b92915050565b600060208284031215610149576101486100d0565b5b60006101578482850161011e565b91505092915050565b60805161246a6101896000396000818161041d0152818161046e0152610f6c015261246a6000f3fe608060405234801561001057600080fd5b50600436106100a95760003560e01c80636f77926b116100715780636f77926b1461016c5780638952ac1e1461019e578063a3e8b4e8146101ba578063a694fc3a146101d6578063b871fa93146101f2578063d2e40f3e1461020e576100a9565b8063055bab39146100ae5780632e1a7d4d146100ca5780633e413bee146100e657806347734892146101045780635598f8cc14610134575b600080fd5b6100c860048036038101906100c391906116ce565b61022c565b005b6100e460048036038101906100df919061172a565b6102f3565b005b6100ee61046c565b6040516100fb91906117d6565b60405180910390f35b61011e6004803603810190610119919061182f565b610490565b60405161012b919061186b565b60405180910390f35b61014e6004803603810190610149919061172a565b6104d9565b6040516101639998979695949392919061198b565b60405180910390f35b6101866004803603810190610181919061182f565b610728565b60405161019593929190611aeb565b60405180910390f35b6101b860048036038101906101b39190611b30565b610a7a565b005b6101d460048036038101906101cf9190611ba8565b610d1a565b005b6101f060048036038101906101eb919061172a565b610f19565b005b61020c60048036038101906102079190611cb2565b611012565b005b61021661133e565b604051610223919061186b565b60405180910390f35b600560009054906101000a900473ffffffffffffffffffffffffffffffffffffffff1673ffffffffffffffffffffffffffffffffffffffff163373ffffffffffffffffffffffffffffffffffffffff16146102bc576040517f08c379a00000000000000000000000000000000000000000000000000000000081526004016102b390611d65565b60405180910390fd5b80600383815481106102d1576102d0611d85565b5b90600052602060002090600a020160030190816102ee9190611fb6565b505050565b6102fb61134b565b6000811161033e576040517f08c379a0000000000000000000000000000000000000000000000000000000008152600401610335906120d4565b60405180910390fd5b80600160003373ffffffffffffffffffffffffffffffffffffffff1673ffffffffffffffffffffffffffffffffffffffff1681526020019081526020016000205410156103c0576040517f08c379a00000000000000000000000000000000000000000000000000000000081526004016103b790612140565b60405180910390fd5b80600160003373ffffffffffffffffffffffffffffffffffffffff1673ffffffffffffffffffffffffffffffffffffffff168152602001908152602001600020600082825461040f919061218f565b9250508190555061046133827f000000000000000000000000000000000000000000000000000000000000000073ffffffffffffffffffffffffffffffffffffffff166113919092919063ffffffff16565b610469611410565b50565b7f000000000000000000000000000000000000000000000000000000000000000081565b6000600160008373ffffffffffffffffffffffffffffffffffffffff1673ffffffffffffffffffffffffffffffffffffffff168152602001908152602001600020549050919050565b6060806000806060600080600080600060038b815481106104fd576104fc611d85565b5b90600052602060002090600a0201905080600001816001018260020160009054906101000a900473ffffffffffffffffffffffffffffffffffffffff168360020160149054906101000a900460ff1684600301856004015486600501548760060154886007015488805461057090611de3565b80601f016020809104026020016040519081016040528092919081815260200182805461059c90611de3565b80156105e95780601f106105be576101008083540402835291602001916105e9565b820191906000526020600020905b8154815290600101906020018083116105cc57829003601f168201915b505050505098508780546105fc90611de3565b80601f016020809104026020016040519081016040528092919081815260200182805461062890611de3565b80156106755780601f1061064a57610100808354040283529160200191610675565b820191906000526020600020905b81548152906001019060200180831161065857829003601f168201915b5050505050975084805461068890611de3565b80601f01602080910402602001604051908101604052809291908181526020018280546106b490611de3565b80156107015780601f106106d657610100808354040283529160200191610701565b820191906000526020600020905b8154815290600101906020018083116106e457829003601f168201915b50505050509450995099509950995099509950995099509950509193959799909294969850565b60006060806000600160008673ffffffffffffffffffffffffffffffffffffffff1673ffffffffffffffffffffffffffffffffffffffff1681526020019081526020016000205490506000600260008773ffffffffffffffffffffffffffffffffffffffff1673ffffffffffffffffffffffffffffffffffffffff1681526020019081526020016000208054905067ffffffffffffffff8111156107cf576107ce6115a3565b5b6040519080825280602002602001820160405280156107fd5781602001602082028036833780820191505090505b5090506000600260008873ffffffffffffffffffffffffffffffffffffffff1673ffffffffffffffffffffffffffffffffffffffff1681526020019081526020016000208054905067ffffffffffffffff81111561085e5761085d6115a3565b5b60405190808252806020026020018201604052801561088c5781602001602082028036833780820191505090505b50905060005b600260008973ffffffffffffffffffffffffffffffffffffffff1673ffffffffffffffffffffffffffffffffffffffff16815260200190815260200160002080549050811015610a66576000600260008a73ffffffffffffffffffffffffffffffffffffffff1673ffffffffffffffffffffffffffffffffffffffff168152602001908152602001600020828154811061092f5761092e611d85565b5b90600052602060002001549050600381815481106109505761094f611d85565b5b90600052602060002090600a020160080160008a73ffffffffffffffffffffffffffffffffffffffff1673ffffffffffffffffffffffffffffffffffffffff168152602001908152602001600020548483815181106109b2576109b1611d85565b5b602002602001018181525050600381815481106109d2576109d1611d85565b5b90600052602060002090600a0201600601548483815181106109f7576109f6611d85565b5b6020026020010151610a0991906121f2565b60038281548110610a1d57610a1c611d85565b5b90600052602060002090600a020160070154610a399190612223565b838381518110610a4c57610a4b611d85565b5b602002602001018181525050508080600101915050610892565b508282829550955095505050509193909250565b600560009054906101000a900473ffffffffffffffffffffffffffffffffffffffff1673ffffffffffffffffffffffffffffffffffffffff163373ffffffffffffffffffffffffffffffffffffffff1614610b0a576040517f08c379a0000000000000000000000000000000000000000000000000000000008152600401610b01906122b1565b60405180910390fd5b8060038481548110610b1f57610b1e611d85565b5b90600052602060002090600a02016006016000828254610b3f91906122d1565b925050819055508060038481548110610b5b57610b5a611d85565b5b90600052602060002090600a020160080160008473ffffffffffffffffffffffffffffffffffffffff1673ffffffffffffffffffffffffffffffffffffffff1681526020019081526020016000206000828254610bb891906122d1565b925050819055508060038481548110610bd457610bd3611d85565b5b90600052602060002090600a020160080160008473ffffffffffffffffffffffffffffffffffffffff1673ffffffffffffffffffffffffffffffffffffffff1681526020019081526020016000205403610d155760038381548110610c3c57610c3b611d85565b5b90600052602060002090600a0201600901829080600181540180825580915050600190039060005260206000200160009091909190916101000a81548173ffffffffffffffffffffffffffffffffffffffff021916908373ffffffffffffffffffffffffffffffffffffffff160217905550600260008373ffffffffffffffffffffffffffffffffffffffff1673ffffffffffffffffffffffffffffffffffffffff1681526020019081526020016000208390806001815401808255809150506001900390600052602060002001600090919091909150555b505050565b600360018160018154018082558091505003906000526020600020905050600060036001600380549050610d4e919061218f565b81548110610d5f57610d5e611d85565b5b90600052602060002090600a0201905088816000019081610d809190611fb6565b5087816001019081610d929190611fb6565b50858160020160006101000a81548173ffffffffffffffffffffffffffffffffffffffff021916908373ffffffffffffffffffffffffffffffffffffffff160217905550848160020160146101000a81548160ff02191690836004811115610dfd57610dfc611914565b5b021790555086816003019081610e139190611fb6565b508381600401819055508281600501819055508181600601819055506000816007018190555080600901869080600181540180825580915050600190039060005260206000200160009091909190916101000a81548173ffffffffffffffffffffffffffffffffffffffff021916908373ffffffffffffffffffffffffffffffffffffffff160217905550818160080160008873ffffffffffffffffffffffffffffffffffffffff1673ffffffffffffffffffffffffffffffffffffffff1681526020019081526020016000206000828254610eef91906122d1565b9250508190555060046000815480929190610f0990612305565b9190505550505050505050505050565b610f2161134b565b60008111610f64576040517f08c379a0000000000000000000000000000000000000000000000000000000008152600401610f5b906120d4565b60405180910390fd5b610fb13330837f000000000000000000000000000000000000000000000000000000000000000073ffffffffffffffffffffffffffffffffffffffff1661141a909392919063ffffffff16565b80600160003373ffffffffffffffffffffffffffffffffffffffff1673ffffffffffffffffffffffffffffffffffffffff168152602001908152602001600020600082825461100091906122d1565b9250508190555061100f611410565b50565b60006003828154811061102857611027611d85565b5b90600052602060002090600a020160050154846110459190612223565b6003838154811061105957611058611d85565b5b90600052602060002090600a020160040154866110769190612223565b61108091906122d1565b905080600160008573ffffffffffffffffffffffffffffffffffffffff1673ffffffffffffffffffffffffffffffffffffffff168152602001908152602001600020541015611104576040517f08c379a00000000000000000000000000000000000000000000000000000000081526004016110fb90612399565b60405180910390fd5b80600160008573ffffffffffffffffffffffffffffffffffffffff1673ffffffffffffffffffffffffffffffffffffffff1681526020019081526020016000206000828254611153919061218f565b92505081905550806003838154811061116f5761116e611d85565b5b90600052602060002090600a0201600701600082825461118f91906122d1565b9250508190555060005b600383815481106111ad576111ac611d85565b5b90600052602060002090600a020160090180549050811015611336576000600384815481106111df576111de611d85565b5b90600052602060002090600a0201600901828154811061120257611201611d85565b5b9060005260206000200160009054906101000a900473ffffffffffffffffffffffffffffffffffffffff16905060006003858154811061124557611244611d85565b5b90600052602060002090600a0201600601546003868154811061126b5761126a611d85565b5b90600052602060002090600a020160080160008473ffffffffffffffffffffffffffffffffffffffff1673ffffffffffffffffffffffffffffffffffffffff168152602001908152602001600020546112c491906121f2565b846112cf9190612223565b905080600160008473ffffffffffffffffffffffffffffffffffffffff1673ffffffffffffffffffffffffffffffffffffffff168152602001908152602001600020600082825461132091906122d1565b9250508190555050508080600101915050611199565b505050505050565b6000600380549050905090565b600260005403611387576040517f3ee5aeb500000000000000000000000000000000000000000000000000000000815260040160405180910390fd5b6002600081905550565b61140b838473ffffffffffffffffffffffffffffffffffffffff1663a9059cbb85856040516024016113c49291906123b9565b604051602081830303815290604052915060e01b6020820180517bffffffffffffffffffffffffffffffffffffffffffffffffffffffff838183161783525050505061149c565b505050565b6001600081905550565b611496848573ffffffffffffffffffffffffffffffffffffffff166323b872dd86868660405160240161144f939291906123e2565b604051602081830303815290604052915060e01b6020820180517bffffffffffffffffffffffffffffffffffffffffffffffffffffffff838183161783525050505061149c565b50505050565b600080602060008451602086016000885af1806114bf576040513d6000823e3d81fd5b3d9250600051915050600082146114da5760018114156114f6565b60008473ffffffffffffffffffffffffffffffffffffffff163b145b1561153857836040517f5274afe700000000000000000000000000000000000000000000000000000000815260040161152f9190612419565b60405180910390fd5b50505050565b6000604051905090565b600080fd5b600080fd5b6000819050919050565b61156581611552565b811461157057600080fd5b50565b6000813590506115828161155c565b92915050565b600080fd5b600080fd5b6000601f19601f8301169050919050565b7f4e487b7100000000000000000000000000000000000000000000000000000000600052604160045260246000fd5b6115db82611592565b810181811067ffffffffffffffff821117156115fa576115f96115a3565b5b80604052505050565b600061160d61153e565b905061161982826115d2565b919050565b600067ffffffffffffffff821115611639576116386115a3565b5b61164282611592565b9050602081019050919050565b82818337600083830152505050565b600061167161166c8461161e565b611603565b90508281526020810184848401111561168d5761168c61158d565b5b61169884828561164f565b509392505050565b600082601f8301126116b5576116b4611588565b5b81356116c584826020860161165e565b91505092915050565b600080604083850312156116e5576116e4611548565b5b60006116f385828601611573565b925050602083013567ffffffffffffffff8111156117145761171361154d565b5b611720858286016116a0565b9150509250929050565b6000602082840312156117405761173f611548565b5b600061174e84828501611573565b91505092915050565b600073ffffffffffffffffffffffffffffffffffffffff82169050919050565b6000819050919050565b600061179c61179761179284611757565b611777565b611757565b9050919050565b60006117ae82611781565b9050919050565b60006117c0826117a3565b9050919050565b6117d0816117b5565b82525050565b60006020820190506117eb60008301846117c7565b92915050565b60006117fc82611757565b9050919050565b61180c816117f1565b811461181757600080fd5b50565b60008135905061182981611803565b92915050565b60006020828403121561184557611844611548565b5b60006118538482850161181a565b91505092915050565b61186581611552565b82525050565b6000602082019050611880600083018461185c565b92915050565b600081519050919050565b600082825260208201905092915050565b60005b838110156118c05780820151818401526020810190506118a5565b60008484015250505050565b60006118d782611886565b6118e18185611891565b93506118f18185602086016118a2565b6118fa81611592565b840191505092915050565b61190e816117f1565b82525050565b7f4e487b7100000000000000000000000000000000000000000000000000000000600052602160045260246000fd5b6005811061195457611953611914565b5b50565b600081905061196582611943565b919050565b600061197582611957565b9050919050565b6119858161196a565b82525050565b60006101208201905081810360008301526119a6818c6118cc565b905081810360208301526119ba818b6118cc565b90506119c9604083018a611905565b6119d6606083018961197c565b81810360808301526119e881886118cc565b90506119f760a083018761185c565b611a0460c083018661185c565b611a1160e083018561185c565b611a1f61010083018461185c565b9a9950505050505050505050565b600081519050919050565b600082825260208201905092915050565b6000819050602082019050919050565b611a6281611552565b82525050565b6000611a748383611a59565b60208301905092915050565b6000602082019050919050565b6000611a9882611a2d565b611aa28185611a38565b9350611aad83611a49565b8060005b83811015611ade578151611ac58882611a68565b9750611ad083611a80565b925050600181019050611ab1565b5085935050505092915050565b6000606082019050611b00600083018661185c565b8181036020830152611b128185611a8d565b90508181036040830152611b268184611a8d565b9050949350505050565b600080600060608486031215611b4957611b48611548565b5b6000611b5786828701611573565b9350506020611b688682870161181a565b9250506040611b7986828701611573565b9150509250925092565b60058110611b9057600080fd5b50565b600081359050611ba281611b83565b92915050565b600080600080600080600080610100898b031215611bc957611bc8611548565b5b600089013567ffffffffffffffff811115611be757611be661154d565b5b611bf38b828c016116a0565b985050602089013567ffffffffffffffff811115611c1457611c1361154d565b5b611c208b828c016116a0565b975050604089013567ffffffffffffffff811115611c4157611c4061154d565b5b611c4d8b828c016116a0565b9650506060611c5e8b828c0161181a565b9550506080611c6f8b828c01611b93565b94505060a0611c808b828c01611573565b93505060c0611c918b828c01611573565b92505060e0611ca28b828c01611573565b9150509295985092959890939650565b60008060008060808587031215611ccc57611ccb611548565b5b6000611cda87828801611573565b9450506020611ceb87828801611573565b9350506040611cfc8782880161181a565b9250506060611d0d87828801611573565b91505092959194509250565b7f4f6e6c792061646d696e2063616e2075706461746520766563746f7220444200600082015250565b6000611d4f601f83611891565b9150611d5a82611d19565b602082019050919050565b60006020820190508181036000830152611d7e81611d42565b9050919050565b7f4e487b7100000000000000000000000000000000000000000000000000000000600052603260045260246000fd5b7f4e487b7100000000000000000000000000000000000000000000000000000000600052602260045260246000fd5b60006002820490506001821680611dfb57607f821691505b602082108103611e0e57611e0d611db4565b5b50919050565b60008190508160005260206000209050919050565b60006020601f8301049050919050565b600082821b905092915050565b600060088302611e767fffffffffffffffffffffffffffffffffffffffffffffffffffffffffffffffff82611e39565b611e808683611e39565b95508019841693508086168417925050509392505050565b6000611eb3611eae611ea984611552565b611777565b611552565b9050919050565b6000819050919050565b611ecd83611e98565b611ee1611ed982611eba565b848454611e46565b825550505050565b600090565b611ef6611ee9565b611f01818484611ec4565b505050565b5b81811015611f2557611f1a600082611eee565b600181019050611f07565b5050565b601f821115611f6a57611f3b81611e14565b611f4484611e29565b81016020851015611f53578190505b611f67611f5f85611e29565b830182611f06565b50505b505050565b600082821c905092915050565b6000611f8d60001984600802611f6f565b1980831691505092915050565b6000611fa68383611f7c565b9150826002028217905092915050565b611fbf82611886565b67ffffffffffffffff811115611fd857611fd76115a3565b5b611fe28254611de3565b611fed828285611f29565b600060209050601f831160018114612020576000841561200e578287015190505b6120188582611f9a565b865550612080565b601f19841661202e86611e14565b60005b8281101561205657848901518255600182019150602085019450602081019050612031565b86831015612073578489015161206f601f891682611f7c565b8355505b6001600288020188555050505b505050505050565b7f616d6f756e74203d203000000000000000000000000000000000000000000000600082015250565b60006120be600a83611891565b91506120c982612088565b602082019050919050565b600060208201905081810360008301526120ed816120b1565b9050919050565b7f696e73756666696369656e742062616c616e6365000000000000000000000000600082015250565b600061212a601483611891565b9150612135826120f4565b602082019050919050565b600060208201905081810360008301526121598161211d565b9050919050565b7f4e487b7100000000000000000000000000000000000000000000000000000000600052601160045260246000fd5b600061219a82611552565b91506121a583611552565b92508282039050818111156121bd576121bc612160565b5b92915050565b7f4e487b7100000000000000000000000000000000000000000000000000000000600052601260045260246000fd5b60006121fd82611552565b915061220883611552565b925082612218576122176121c3565b5b828204905092915050565b600061222e82611552565b915061223983611552565b925082820261224781611552565b9150828204841483151761225e5761225d612160565b5b5092915050565b7f4f6e6c792061646d696e2063616e20636f6e7472696275746500000000000000600082015250565b600061229b601983611891565b91506122a682612265565b602082019050919050565b600060208201905081810360008301526122ca8161228e565b9050919050565b60006122dc82611552565b91506122e783611552565b92508282019050808211156122ff576122fe612160565b5b92915050565b600061231082611552565b91507fffffffffffffffffffffffffffffffffffffffffffffffffffffffffffffffff820361234257612341612160565b5b600182019050919050565b7f496e73756666696369656e74207669727475616c2062616c616e636500000000600082015250565b6000612383601c83611891565b915061238e8261234d565b602082019050919050565b600060208201905081810360008301526123b281612376565b9050919050565b60006040820190506123ce6000830185611905565b6123db602083018461185c565b9392505050565b60006060820190506123f76000830186611905565b6124046020830185611905565b612411604083018461185c565b949350505050565b600060208201905061242e6000830184611905565b9291505056fea26469706673582212204be31a9559e8b66dfc76a903fc34d2c7c05d7714ba00c8d8c37758c452ff7d9a64736f6c634300081c0033",
  "linkReferences": {},
  "deployedLinkReferences": {}
}