{
  "_format": "hh-sol-artifact-1",
  "contractName": "main",
  "sourceName": "src/main.sol",
  "abi": [
    {
      "inputs": [
        {
          "internalType": "address",
          "name": "rofl",
          "type": "address"
        }
      ],
      "stateMutability": "nonpayable",
      "type": "constructor"
    },
    {
      "inputs": [],
      "name": "ReentrancyGuardReentrantCall",
      "type": "error"
    },
    {
      "inputs": [
        {
          "internalType": "address",
          "name": "token",
          "type": "address"
        }
      ],
      "name": "SafeERC20FailedOperation",
      "type": "error"
    },
    {
      "inputs": [
        {
          "internalType": "uint256",
          "name": "in_token",
          "type": "uint256"
        },
        {
          "internalType": "uint256",
          "name": "out_token",
          "type": "uint256"
        },
        {
          "internalType": "address",
          "name": "user",
          "type": "address"
        },
        {
          "internalType": "uint256",
          "name": "campaignId",
          "type": "uint256"
        }
      ],
      "name": "chat",
      "outputs": [],
      "stateMutability": "nonpayable",
      "type": "function"
    },
    {
      "inputs": [
        {
          "internalType": "uint256",
          "name": "campaignId",
          "type": "uint256"
        },
        {
          "internalType": "address",
          "name": "contributer",
          "type": "address"
        },
        {
          "internalType": "uint256",
          "name": "data_token_amount",
          "type": "uint256"
        }
      ],
      "name": "contribute",
      "outputs": [],
      "stateMutability": "nonpayable",
      "type": "function"
    },
    {
      "inputs": [
        {
          "internalType": "string",
          "name": "name",
          "type": "string"
        },
        {
          "internalType": "string",
          "name": "description",
          "type": "string"
        },
        {
          "internalType": "string",
          "name": "vector_db_cid",
          "type": "string"
        },
        {
          "internalType": "address",
          "name": "owner",
          "type": "address"
        },
        {
          "internalType": "enum main.Category",
          "name": "category",
          "type": "uint8"
        },
        {
          "internalType": "uint256",
          "name": "in_token_price",
          "type": "uint256"
        },
        {
          "internalType": "uint256",
          "name": "out_token_price",
          "type": "uint256"
        },
        {
          "internalType": "uint256",
          "name": "initial_data_token",
          "type": "uint256"
        }
      ],
      "name": "createCampaign",
      "outputs": [],
      "stateMutability": "nonpayable",
      "type": "function"
    },
    {
      "inputs": [
        {
          "internalType": "uint256",
          "name": "campaignId",
          "type": "uint256"
        }
      ],
      "name": "getCampaign",
      "outputs": [
        {
          "internalType": "string",
          "name": "",
          "type": "string"
        },
        {
          "internalType": "string",
          "name": "",
          "type": "string"
        },
        {
          "internalType": "address",
          "name": "",
          "type": "address"
        },
        {
          "internalType": "enum main.Category",
          "name": "",
          "type": "uint8"
        },
        {
          "internalType": "string",
          "name": "",
          "type": "string"
        },
        {
          "internalType": "uint256",
          "name": "",
          "type": "uint256"
        },
        {
          "internalType": "uint256",
          "name": "",
          "type": "uint256"
        },
        {
          "internalType": "uint256",
          "name": "",
          "type": "uint256"
        },
        {
          "internalType": "uint256",
          "name": "",
          "type": "uint256"
        }
      ],
      "stateMutability": "view",
      "type": "function"
    },
    {
      "inputs": [
        {
          "internalType": "address",
          "name": "user",
          "type": "address"
        }
      ],
      "name": "getUser",
      "outputs": [
        {
          "internalType": "uint256",
          "name": "",
          "type": "uint256"
        },
        {
          "internalType": "uint256[]",
          "name": "",
          "type": "uint256[]"
        },
        {
          "internalType": "uint256[]",
          "name": "",
          "type": "uint256[]"
        }
      ],
      "stateMutability": "view",
      "type": "function"
    },
    {
      "inputs": [
        {
          "internalType": "address",
          "name": "user",
          "type": "address"
        }
      ],
      "name": "getUserBalance",
      "outputs": [
        {
          "internalType": "uint256",
          "name": "",
          "type": "uint256"
        }
      ],
      "stateMutability": "view",
      "type": "function"
    },
    {
      "inputs": [],
      "name": "get_campaigns_length",
      "outputs": [
        {
          "internalType": "uint256",
          "name": "",
          "type": "uint256"
        }
      ],
      "stateMutability": "view",
      "type": "function"
    },
    {
      "inputs": [
        {
          "internalType": "uint256",
          "name": "amount",
          "type": "uint256"
        }
      ],
      "name": "stake",
      "outputs": [],
      "stateMutability": "nonpayable",
      "type": "function"
    },
    {
      "inputs": [],
      "name": "usdc",
      "outputs": [
        {
          "internalType": "contract IERC20",
          "name": "",
          "type": "address"
        }
      ],
      "stateMutability": "view",
      "type": "function"
    },
    {
      "inputs": [
        {
          "internalType": "uint256",
          "name": "campaignId",
          "type": "uint256"
        },
        {
          "internalType": "string",
          "name": "cid",
          "type": "string"
        }
      ],
      "name": "vector_db_update",
      "outputs": [],
      "stateMutability": "nonpayable",
      "type": "function"
    },
    {
      "inputs": [
        {
          "internalType": "uint256",
          "name": "amount",
          "type": "uint256"
        }
      ],
      "name": "withdraw",
      "outputs": [],
      "stateMutability": "nonpayable",
      "type": "function"
    }
  ],
  "bytecode": "0x60a0604052731c7d4b196cb0c7b01d743fbc6116a902379c723873ffffffffffffffffffffffffffffffffffffffff1660809073ffffffffffffffffffffffffffffffffffffffff1681525034801561005757600080fd5b5060405161258938038061258983398181016040528101906100799190610133565b600160008190555080600560006101000a81548173ffffffffffffffffffffffffffffffffffffffff021916908373ffffffffffffffffffffffffffffffffffffffff160217905550600060048190555050610160565b600080fd5b600073ffffffffffffffffffffffffffffffffffffffff82169050919050565b6000610100826100d5565b9050919050565b610110816100f5565b811461011b57600080fd5b50565b60008151905061012d81610107565b92915050565b600060208284031215610149576101486100d0565b5b60006101578482850161011e565b91505092915050565b6080516124006101896000396000818161041d0152818161046e0152610f0201526124006000f3fe608060405234801561001057600080fd5b50600436106100a95760003560e01c80636f77926b116100715780636f77926b1461016c5780638952ac1e1461019e578063a3e8b4e8146101ba578063a694fc3a146101d6578063b871fa93146101f2578063d2e40f3e1461020e576100a9565b8063055bab39146100ae5780632e1a7d4d146100ca5780633e413bee146100e657806347734892146101045780635598f8cc14610134575b600080fd5b6100c860048036038101906100c39190611664565b61022c565b005b6100e460048036038101906100df91906116c0565b6102f3565b005b6100ee61046c565b6040516100fb919061176c565b60405180910390f35b61011e600480360381019061011991906117c5565b610490565b60405161012b9190611801565b60405180910390f35b61014e600480360381019061014991906116c0565b6104d9565b60405161016399989796959493929190611921565b60405180910390f35b610186600480360381019061018191906117c5565b610728565b60405161019593929190611a81565b60405180910390f35b6101b860048036038101906101b39190611ac6565b610a7a565b005b6101d460048036038101906101cf9190611b3e565b610cb0565b005b6101f060048036038101906101eb91906116c0565b610eaf565b005b61020c60048036038101906102079190611c48565b610fa8565b005b6102166112d4565b6040516102239190611801565b60405180910390f35b600560009054906101000a900473ffffffffffffffffffffffffffffffffffffffff1673ffffffffffffffffffffffffffffffffffffffff163373ffffffffffffffffffffffffffffffffffffffff16146102bc576040517f08c379a00000000000000000000000000000000000000000000000000000000081526004016102b390611cfb565b60405180910390fd5b80600383815481106102d1576102d0611d1b565b5b90600052602060002090600a020160030190816102ee9190611f4c565b505050565b6102fb6112e1565b6000811161033e576040517f08c379a00000000000000000000000000000000000000000000000000000000081526004016103359061206a565b60405180910390fd5b80600160003373ffffffffffffffffffffffffffffffffffffffff1673ffffffffffffffffffffffffffffffffffffffff1681526020019081526020016000205410156103c0576040517f08c379a00000000000000000000000000000000000000000000000000000000081526004016103b7906120d6565b60405180910390fd5b80600160003373ffffffffffffffffffffffffffffffffffffffff1673ffffffffffffffffffffffffffffffffffffffff168152602001908152602001600020600082825461040f9190612125565b9250508190555061046133827f000000000000000000000000000000000000000000000000000000000000000073ffffffffffffffffffffffffffffffffffffffff166113279092919063ffffffff16565b6104696113a6565b50565b7f000000000000000000000000000000000000000000000000000000000000000081565b6000600160008373ffffffffffffffffffffffffffffffffffffffff1673ffffffffffffffffffffffffffffffffffffffff168152602001908152602001600020549050919050565b6060806000806060600080600080600060038b815481106104fd576104fc611d1b565b5b90600052602060002090600a0201905080600001816001018260020160009054906101000a900473ffffffffffffffffffffffffffffffffffffffff168360020160149054906101000a900460ff1684600301856004015486600501548760060154886007015488805461057090611d79565b80601f016020809104026020016040519081016040528092919081815260200182805461059c90611d79565b80156105e95780601f106105be576101008083540402835291602001916105e9565b820191906000526020600020905b8154815290600101906020018083116105cc57829003601f168201915b505050505098508780546105fc90611d79565b80601f016020809104026020016040519081016040528092919081815260200182805461062890611d79565b80156106755780601f1061064a57610100808354040283529160200191610675565b820191906000526020600020905b81548152906001019060200180831161065857829003601f168201915b5050505050975084805461068890611d79565b80601f01602080910402602001604051908101604052809291908181526020018280546106b490611d79565b80156107015780601f106106d657610100808354040283529160200191610701565b820191906000526020600020905b8154815290600101906020018083116106e457829003601f168201915b50505050509450995099509950995099509950995099509950509193959799909294969850565b60006060806000600160008673ffffffffffffffffffffffffffffffffffffffff1673ffffffffffffffffffffffffffffffffffffffff1681526020019081526020016000205490506000600260008773ffffffffffffffffffffffffffffffffffffffff1673ffffffffffffffffffffffffffffffffffffffff1681526020019081526020016000208054905067ffffffffffffffff8111156107cf576107ce611539565b5b6040519080825280602002602001820160405280156107fd5781602001602082028036833780820191505090505b5090506000600260008873ffffffffffffffffffffffffffffffffffffffff1673ffffffffffffffffffffffffffffffffffffffff1681526020019081526020016000208054905067ffffffffffffffff81111561085e5761085d611539565b5b60405190808252806020026020018201604052801561088c5781602001602082028036833780820191505090505b50905060005b600260008973ffffffffffffffffffffffffffffffffffffffff1673ffffffffffffffffffffffffffffffffffffffff16815260200190815260200160002080549050811015610a66576000600260008a73ffffffffffffffffffffffffffffffffffffffff1673ffffffffffffffffffffffffffffffffffffffff168152602001908152602001600020828154811061092f5761092e611d1b565b5b90600052602060002001549050600381815481106109505761094f611d1b565b5b90600052602060002090600a020160080160008a73ffffffffffffffffffffffffffffffffffffffff1673ffffffffffffffffffffffffffffffffffffffff168152602001908152602001600020548483815181106109b2576109b1611d1b565b5b602002602001018181525050600381815481106109d2576109d1611d1b565b5b90600052602060002090600a0201600601548483815181106109f7576109f6611d1b565b5b6020026020010151610a099190612188565b60038281548110610a1d57610a1c611d1b565b5b90600052602060002090600a020160070154610a3991906121b9565b838381518110610a4c57610a4b611d1b565b5b602002602001018181525050508080600101915050610892565b508282829550955095505050509193909250565b600560009054906101000a900473ffffffffffffffffffffffffffffffffffffffff1673ffffffffffffffffffffffffffffffffffffffff163373ffffffffffffffffffffffffffffffffffffffff1614610b0a576040517f08c379a0000000000000000000000000000000000000000000000000000000008152600401610b0190612247565b60405180910390fd5b8060038481548110610b1f57610b1e611d1b565b5b90600052602060002090600a02016006016000828254610b3f9190612267565b925050819055508060038481548110610b5b57610b5a611d1b565b5b90600052602060002090600a020160080160008473ffffffffffffffffffffffffffffffffffffffff1673ffffffffffffffffffffffffffffffffffffffff1681526020019081526020016000206000828254610bb89190612267565b9250508190555060038381548110610bd357610bd2611d1b565b5b90600052602060002090600a0201600901829080600181540180825580915050600190039060005260206000200160009091909190916101000a81548173ffffffffffffffffffffffffffffffffffffffff021916908373ffffffffffffffffffffffffffffffffffffffff160217905550600260008373ffffffffffffffffffffffffffffffffffffffff1673ffffffffffffffffffffffffffffffffffffffff168152602001908152602001600020839080600181540180825580915050600190039060005260206000200160009091909190915055505050565b600360018160018154018082558091505003906000526020600020905050600060036001600380549050610ce49190612125565b81548110610cf557610cf4611d1b565b5b90600052602060002090600a0201905088816000019081610d169190611f4c565b5087816001019081610d289190611f4c565b50858160020160006101000a81548173ffffffffffffffffffffffffffffffffffffffff021916908373ffffffffffffffffffffffffffffffffffffffff160217905550848160020160146101000a81548160ff02191690836004811115610d9357610d926118aa565b5b021790555086816003019081610da99190611f4c565b508381600401819055508281600501819055508181600601819055506000816007018190555080600901869080600181540180825580915050600190039060005260206000200160009091909190916101000a81548173ffffffffffffffffffffffffffffffffffffffff021916908373ffffffffffffffffffffffffffffffffffffffff160217905550818160080160008873ffffffffffffffffffffffffffffffffffffffff1673ffffffffffffffffffffffffffffffffffffffff1681526020019081526020016000206000828254610e859190612267565b9250508190555060046000815480929190610e9f9061229b565b9190505550505050505050505050565b610eb76112e1565b60008111610efa576040517f08c379a0000000000000000000000000000000000000000000000000000000008152600401610ef19061206a565b60405180910390fd5b610f473330837f000000000000000000000000000000000000000000000000000000000000000073ffffffffffffffffffffffffffffffffffffffff166113b0909392919063ffffffff16565b80600160003373ffffffffffffffffffffffffffffffffffffffff1673ffffffffffffffffffffffffffffffffffffffff1681526020019081526020016000206000828254610f969190612267565b92505081905550610fa56113a6565b50565b600060038281548110610fbe57610fbd611d1b565b5b90600052602060002090600a02016005015484610fdb91906121b9565b60038381548110610fef57610fee611d1b565b5b90600052602060002090600a0201600401548661100c91906121b9565b6110169190612267565b905080600160008573ffffffffffffffffffffffffffffffffffffffff1673ffffffffffffffffffffffffffffffffffffffff16815260200190815260200160002054101561109a576040517f08c379a00000000000000000000000000000000000000000000000000000000081526004016110919061232f565b60405180910390fd5b80600160008573ffffffffffffffffffffffffffffffffffffffff1673ffffffffffffffffffffffffffffffffffffffff16815260200190815260200160002060008282546110e99190612125565b92505081905550806003838154811061110557611104611d1b565b5b90600052602060002090600a020160070160008282546111259190612267565b9250508190555060005b6003838154811061114357611142611d1b565b5b90600052602060002090600a0201600901805490508110156112cc5760006003848154811061117557611174611d1b565b5b90600052602060002090600a0201600901828154811061119857611197611d1b565b5b9060005260206000200160009054906101000a900473ffffffffffffffffffffffffffffffffffffffff1690506000600385815481106111db576111da611d1b565b5b90600052602060002090600a0201600601546003868154811061120157611200611d1b565b5b90600052602060002090600a020160080160008473ffffffffffffffffffffffffffffffffffffffff1673ffffffffffffffffffffffffffffffffffffffff1681526020019081526020016000205461125a9190612188565b8461126591906121b9565b905080600160008473ffffffffffffffffffffffffffffffffffffffff1673ffffffffffffffffffffffffffffffffffffffff16815260200190815260200160002060008282546112b69190612267565b925050819055505050808060010191505061112f565b505050505050565b6000600380549050905090565b60026000540361131d576040517f3ee5aeb500000000000000000000000000000000000000000000000000000000815260040160405180910390fd5b6002600081905550565b6113a1838473ffffffffffffffffffffffffffffffffffffffff1663a9059cbb858560405160240161135a92919061234f565b604051602081830303815290604052915060e01b6020820180517bffffffffffffffffffffffffffffffffffffffffffffffffffffffff8381831617835250505050611432565b505050565b6001600081905550565b61142c848573ffffffffffffffffffffffffffffffffffffffff166323b872dd8686866040516024016113e593929190612378565b604051602081830303815290604052915060e01b6020820180517bffffffffffffffffffffffffffffffffffffffffffffffffffffffff8381831617835250505050611432565b50505050565b600080602060008451602086016000885af180611455576040513d6000823e3d81fd5b3d92506000519150506000821461147057600181141561148c565b60008473ffffffffffffffffffffffffffffffffffffffff163b145b156114ce57836040517f5274afe70000000000000000000000000000000000000000000000000000000081526004016114c591906123af565b60405180910390fd5b50505050565b6000604051905090565b600080fd5b600080fd5b6000819050919050565b6114fb816114e8565b811461150657600080fd5b50565b600081359050611518816114f2565b92915050565b600080fd5b600080fd5b6000601f19601f8301169050919050565b7f4e487b7100000000000000000000000000000000000000000000000000000000600052604160045260246000fd5b61157182611528565b810181811067ffffffffffffffff821117156115905761158f611539565b5b80604052505050565b60006115a36114d4565b90506115af8282611568565b919050565b600067ffffffffffffffff8211156115cf576115ce611539565b5b6115d882611528565b9050602081019050919050565b82818337600083830152505050565b6000611607611602846115b4565b611599565b90508281526020810184848401111561162357611622611523565b5b61162e8482856115e5565b509392505050565b600082601f83011261164b5761164a61151e565b5b813561165b8482602086016115f4565b91505092915050565b6000806040838503121561167b5761167a6114de565b5b600061168985828601611509565b925050602083013567ffffffffffffffff8111156116aa576116a96114e3565b5b6116b685828601611636565b9150509250929050565b6000602082840312156116d6576116d56114de565b5b60006116e484828501611509565b91505092915050565b600073ffffffffffffffffffffffffffffffffffffffff82169050919050565b6000819050919050565b600061173261172d611728846116ed565b61170d565b6116ed565b9050919050565b600061174482611717565b9050919050565b600061175682611739565b9050919050565b6117668161174b565b82525050565b6000602082019050611781600083018461175d565b92915050565b6000611792826116ed565b9050919050565b6117a281611787565b81146117ad57600080fd5b50565b6000813590506117bf81611799565b92915050565b6000602082840312156117db576117da6114de565b5b60006117e9848285016117b0565b91505092915050565b6117fb816114e8565b82525050565b600060208201905061181660008301846117f2565b92915050565b600081519050919050565b600082825260208201905092915050565b60005b8381101561185657808201518184015260208101905061183b565b60008484015250505050565b600061186d8261181c565b6118778185611827565b9350611887818560208601611838565b61189081611528565b840191505092915050565b6118a481611787565b82525050565b7f4e487b7100000000000000000000000000000000000000000000000000000000600052602160045260246000fd5b600581106118ea576118e96118aa565b5b50565b60008190506118fb826118d9565b919050565b600061190b826118ed565b9050919050565b61191b81611900565b82525050565b600061012082019050818103600083015261193c818c611862565b90508181036020830152611950818b611862565b905061195f604083018a61189b565b61196c6060830189611912565b818103608083015261197e8188611862565b905061198d60a08301876117f2565b61199a60c08301866117f2565b6119a760e08301856117f2565b6119b56101008301846117f2565b9a9950505050505050505050565b600081519050919050565b600082825260208201905092915050565b6000819050602082019050919050565b6119f8816114e8565b82525050565b6000611a0a83836119ef565b60208301905092915050565b6000602082019050919050565b6000611a2e826119c3565b611a3881856119ce565b9350611a43836119df565b8060005b83811015611a74578151611a5b88826119fe565b9750611a6683611a16565b925050600181019050611a47565b5085935050505092915050565b6000606082019050611a9660008301866117f2565b8181036020830152611aa88185611a23565b90508181036040830152611abc8184611a23565b9050949350505050565b600080600060608486031215611adf57611ade6114de565b5b6000611aed86828701611509565b9350506020611afe868287016117b0565b9250506040611b0f86828701611509565b9150509250925092565b60058110611b2657600080fd5b50565b600081359050611b3881611b19565b92915050565b600080600080600080600080610100898b031215611b5f57611b5e6114de565b5b600089013567ffffffffffffffff811115611b7d57611b7c6114e3565b5b611b898b828c01611636565b985050602089013567ffffffffffffffff811115611baa57611ba96114e3565b5b611bb68b828c01611636565b975050604089013567ffffffffffffffff811115611bd757611bd66114e3565b5b611be38b828c01611636565b9650506060611bf48b828c016117b0565b9550506080611c058b828c01611b29565b94505060a0611c168b828c01611509565b93505060c0611c278b828c01611509565b92505060e0611c388b828c01611509565b9150509295985092959890939650565b60008060008060808587031215611c6257611c616114de565b5b6000611c7087828801611509565b9450506020611c8187828801611509565b9350506040611c92878288016117b0565b9250506060611ca387828801611509565b91505092959194509250565b7f4f6e6c792061646d696e2063616e2075706461746520766563746f7220444200600082015250565b6000611ce5601f83611827565b9150611cf082611caf565b602082019050919050565b60006020820190508181036000830152611d1481611cd8565b9050919050565b7f4e487b7100000000000000000000000000000000000000000000000000000000600052603260045260246000fd5b7f4e487b7100000000000000000000000000000000000000000000000000000000600052602260045260246000fd5b60006002820490506001821680611d9157607f821691505b602082108103611da457611da3611d4a565b5b50919050565b60008190508160005260206000209050919050565b60006020601f8301049050919050565b600082821b905092915050565b600060088302611e0c7fffffffffffffffffffffffffffffffffffffffffffffffffffffffffffffffff82611dcf565b611e168683611dcf565b95508019841693508086168417925050509392505050565b6000611e49611e44611e3f846114e8565b61170d565b6114e8565b9050919050565b6000819050919050565b611e6383611e2e565b611e77611e6f82611e50565b848454611ddc565b825550505050565b600090565b611e8c611e7f565b611e97818484611e5a565b505050565b5b81811015611ebb57611eb0600082611e84565b600181019050611e9d565b5050565b601f821115611f0057611ed181611daa565b611eda84611dbf565b81016020851015611ee9578190505b611efd611ef585611dbf565b830182611e9c565b50505b505050565b600082821c905092915050565b6000611f2360001984600802611f05565b1980831691505092915050565b6000611f3c8383611f12565b9150826002028217905092915050565b611f558261181c565b67ffffffffffffffff811115611f6e57611f6d611539565b5b611f788254611d79565b611f83828285611ebf565b600060209050601f831160018114611fb65760008415611fa4578287015190505b611fae8582611f30565b865550612016565b601f198416611fc486611daa565b60005b82811015611fec57848901518255600182019150602085019450602081019050611fc7565b868310156120095784890151612005601f891682611f12565b8355505b6001600288020188555050505b505050505050565b7f616d6f756e74203d203000000000000000000000000000000000000000000000600082015250565b6000612054600a83611827565b915061205f8261201e565b602082019050919050565b6000602082019050818103600083015261208381612047565b9050919050565b7f696e73756666696369656e742062616c616e6365000000000000000000000000600082015250565b60006120c0601483611827565b91506120cb8261208a565b602082019050919050565b600060208201905081810360008301526120ef816120b3565b9050919050565b7f4e487b7100000000000000000000000000000000000000000000000000000000600052601160045260246000fd5b6000612130826114e8565b915061213b836114e8565b9250828203905081811115612153576121526120f6565b5b92915050565b7f4e487b7100000000000000000000000000000000000000000000000000000000600052601260045260246000fd5b6000612193826114e8565b915061219e836114e8565b9250826121ae576121ad612159565b5b828204905092915050565b60006121c4826114e8565b91506121cf836114e8565b92508282026121dd816114e8565b915082820484148315176121f4576121f36120f6565b5b5092915050565b7f4f6e6c792061646d696e2063616e20636f6e7472696275746500000000000000600082015250565b6000612231601983611827565b915061223c826121fb565b602082019050919050565b6000602082019050818103600083015261226081612224565b9050919050565b6000612272826114e8565b915061227d836114e8565b9250828201905080821115612295576122946120f6565b5b92915050565b60006122a6826114e8565b91507fffffffffffffffffffffffffffffffffffffffffffffffffffffffffffffffff82036122d8576122d76120f6565b5b600182019050919050565b7f496e73756666696369656e74207669727475616c2062616c616e636500000000600082015250565b6000612319601c83611827565b9150612324826122e3565b602082019050919050565b600060208201905081810360008301526123488161230c565b9050919050565b6000604082019050612364600083018561189b565b61237160208301846117f2565b9392505050565b600060608201905061238d600083018661189b565b61239a602083018561189b565b6123a760408301846117f2565b949350505050565b60006020820190506123c4600083018461189b565b9291505056fea2646970667358221220431ce23c0c2ea4e827aa39b94ca2d21744d307e935d395edab3a7676e2d80c4e64736f6c634300081c0033",
  "linkReferences": {},
  "deployedLinkReferences": {}
}