{
  "_format": "hh-sol-artifact-1",
  "contractName": "main",
  "sourceName": "src/main.sol",
  "abi": [
    {
      "inputs": [
        {
          "internalType": "address",
          "name": "rofl",
          "type": "address"
        }
      ],
      "stateMutability": "nonpayable",
      "type": "constructor"
    },
    {
      "inputs": [],
      "name": "ReentrancyGuardReentrantCall",
      "type": "error"
    },
    {
      "inputs": [
        {
          "internalType": "address",
          "name": "token",
          "type": "address"
        }
      ],
      "name": "SafeERC20FailedOperation",
      "type": "error"
    },
    {
      "inputs": [
        {
          "internalType": "uint256",
          "name": "in_token",
          "type": "uint256"
        },
        {
          "internalType": "uint256",
          "name": "out_token",
          "type": "uint256"
        },
        {
          "internalType": "address",
          "name": "user",
          "type": "address"
        },
        {
          "internalType": "uint256",
          "name": "campaignId",
          "type": "uint256"
        }
      ],
      "name": "chat",
      "outputs": [],
      "stateMutability": "nonpayable",
      "type": "function"
    },
    {
      "inputs": [
        {
          "internalType": "uint256",
          "name": "campaignId",
          "type": "uint256"
        },
        {
          "internalType": "address",
          "name": "contributer",
          "type": "address"
        },
        {
          "internalType": "uint256",
          "name": "data_token_amount",
          "type": "uint256"
        }
      ],
      "name": "contribute",
      "outputs": [],
      "stateMutability": "nonpayable",
      "type": "function"
    },
    {
      "inputs": [
        {
          "internalType": "string",
          "name": "name",
          "type": "string"
        },
        {
          "internalType": "string",
          "name": "description",
          "type": "string"
        },
        {
          "internalType": "string",
          "name": "vector_db_cid",
          "type": "string"
        },
        {
          "internalType": "address",
          "name": "owner",
          "type": "address"
        },
        {
          "internalType": "enum main.Category",
          "name": "category",
          "type": "uint8"
        },
        {
          "internalType": "uint256",
          "name": "in_token_price",
          "type": "uint256"
        },
        {
          "internalType": "uint256",
          "name": "out_token_price",
          "type": "uint256"
        },
        {
          "internalType": "uint256",
          "name": "initial_data_token",
          "type": "uint256"
        }
      ],
      "name": "createCampaign",
      "outputs": [],
      "stateMutability": "nonpayable",
      "type": "function"
    },
    {
      "inputs": [
        {
          "internalType": "uint256",
          "name": "campaignId",
          "type": "uint256"
        }
      ],
      "name": "getCampaign",
      "outputs": [
        {
          "internalType": "string",
          "name": "",
          "type": "string"
        },
        {
          "internalType": "string",
          "name": "",
          "type": "string"
        },
        {
          "internalType": "address",
          "name": "",
          "type": "address"
        },
        {
          "internalType": "enum main.Category",
          "name": "",
          "type": "uint8"
        },
        {
          "internalType": "string",
          "name": "",
          "type": "string"
        },
        {
          "internalType": "uint256",
          "name": "",
          "type": "uint256"
        },
        {
          "internalType": "uint256",
          "name": "",
          "type": "uint256"
        },
        {
          "internalType": "uint256",
          "name": "",
          "type": "uint256"
        },
        {
          "internalType": "uint256",
          "name": "",
          "type": "uint256"
        }
      ],
      "stateMutability": "view",
      "type": "function"
    },
    {
      "inputs": [
        {
          "internalType": "address",
          "name": "user",
          "type": "address"
        }
      ],
      "name": "getUser",
      "outputs": [
        {
          "internalType": "uint256",
          "name": "",
          "type": "uint256"
        },
        {
          "internalType": "uint256[]",
          "name": "",
          "type": "uint256[]"
        },
        {
          "internalType": "uint256[]",
          "name": "",
          "type": "uint256[]"
        }
      ],
      "stateMutability": "view",
      "type": "function"
    },
    {
      "inputs": [
        {
          "internalType": "uint256",
          "name": "amount",
          "type": "uint256"
        }
      ],
      "name": "stake",
      "outputs": [],
      "stateMutability": "nonpayable",
      "type": "function"
    },
    {
      "inputs": [],
      "name": "usdc",
      "outputs": [
        {
          "internalType": "contract IERC20",
          "name": "",
          "type": "address"
        }
      ],
      "stateMutability": "view",
      "type": "function"
    },
    {
      "inputs": [
        {
          "internalType": "uint256",
          "name": "campaignId",
          "type": "uint256"
        },
        {
          "internalType": "string",
          "name": "cid",
          "type": "string"
        }
      ],
      "name": "vector_db_update",
      "outputs": [],
      "stateMutability": "nonpayable",
      "type": "function"
    },
    {
      "inputs": [
        {
          "internalType": "uint256",
          "name": "amount",
          "type": "uint256"
        }
      ],
      "name": "withdraw",
      "outputs": [],
      "stateMutability": "nonpayable",
      "type": "function"
    }
  ],
  "bytecode": "0x60a0604052738a93d247134d91e0de6f96547cb0204e5be8e5d873ffffffffffffffffffffffffffffffffffffffff1660809073ffffffffffffffffffffffffffffffffffffffff1681525034801561005757600080fd5b5060405161248738038061248783398181016040528101906100799190610133565b600160008190555080600560006101000a81548173ffffffffffffffffffffffffffffffffffffffff021916908373ffffffffffffffffffffffffffffffffffffffff160217905550600060048190555050610160565b600080fd5b600073ffffffffffffffffffffffffffffffffffffffff82169050919050565b6000610100826100d5565b9050919050565b610110816100f5565b811461011b57600080fd5b50565b60008151905061012d81610107565b92915050565b600060208284031215610149576101486100d0565b5b60006101578482850161011e565b91505092915050565b6080516122fe610189600039600081816103b90152818161040a0152610e2801526122fe6000f3fe608060405234801561001057600080fd5b50600436106100935760003560e01c80636f77926b116100665780636f77926b146101265780638952ac1e14610158578063a3e8b4e814610174578063a694fc3a14610190578063b871fa93146101ac57610093565b8063055bab39146100985780632e1a7d4d146100b45780633e413bee146100d05780635598f8cc146100ee575b600080fd5b6100b260048036038101906100ad919061157d565b6101c8565b005b6100ce60048036038101906100c991906115d9565b61028f565b005b6100d8610408565b6040516100e59190611685565b60405180910390f35b610108600480360381019061010391906115d9565b61042c565b60405161011d999897969594939291906117c6565b60405180910390f35b610140600480360381019061013b9190611894565b61067b565b60405161014f9392919061197f565b60405180910390f35b610172600480360381019061016d91906119c4565b6109cd565b005b61018e60048036038101906101899190611a3c565b610c03565b005b6101aa60048036038101906101a591906115d9565b610dd5565b005b6101c660048036038101906101c19190611b46565b610ece565b005b600560009054906101000a900473ffffffffffffffffffffffffffffffffffffffff1673ffffffffffffffffffffffffffffffffffffffff163373ffffffffffffffffffffffffffffffffffffffff1614610258576040517f08c379a000000000000000000000000000000000000000000000000000000000815260040161024f90611bf9565b60405180910390fd5b806003838154811061026d5761026c611c19565b5b90600052602060002090600a0201600301908161028a9190611e4a565b505050565b6102976111fa565b600081116102da576040517f08c379a00000000000000000000000000000000000000000000000000000000081526004016102d190611f68565b60405180910390fd5b80600160003373ffffffffffffffffffffffffffffffffffffffff1673ffffffffffffffffffffffffffffffffffffffff16815260200190815260200160002054101561035c576040517f08c379a000000000000000000000000000000000000000000000000000000000815260040161035390611fd4565b60405180910390fd5b80600160003373ffffffffffffffffffffffffffffffffffffffff1673ffffffffffffffffffffffffffffffffffffffff16815260200190815260200160002060008282546103ab9190612023565b925050819055506103fd33827f000000000000000000000000000000000000000000000000000000000000000073ffffffffffffffffffffffffffffffffffffffff166112409092919063ffffffff16565b6104056112bf565b50565b7f000000000000000000000000000000000000000000000000000000000000000081565b6060806000806060600080600080600060038b815481106104505761044f611c19565b5b90600052602060002090600a0201905080600001816001018260020160009054906101000a900473ffffffffffffffffffffffffffffffffffffffff168360020160149054906101000a900460ff168460030185600401548660050154876006015488600701548880546104c390611c77565b80601f01602080910402602001604051908101604052809291908181526020018280546104ef90611c77565b801561053c5780601f106105115761010080835404028352916020019161053c565b820191906000526020600020905b81548152906001019060200180831161051f57829003601f168201915b5050505050985087805461054f90611c77565b80601f016020809104026020016040519081016040528092919081815260200182805461057b90611c77565b80156105c85780601f1061059d576101008083540402835291602001916105c8565b820191906000526020600020905b8154815290600101906020018083116105ab57829003601f168201915b505050505097508480546105db90611c77565b80601f016020809104026020016040519081016040528092919081815260200182805461060790611c77565b80156106545780601f1061062957610100808354040283529160200191610654565b820191906000526020600020905b81548152906001019060200180831161063757829003601f168201915b50505050509450995099509950995099509950995099509950509193959799909294969850565b60006060806000600160008673ffffffffffffffffffffffffffffffffffffffff1673ffffffffffffffffffffffffffffffffffffffff1681526020019081526020016000205490506000600260008773ffffffffffffffffffffffffffffffffffffffff1673ffffffffffffffffffffffffffffffffffffffff1681526020019081526020016000208054905067ffffffffffffffff81111561072257610721611452565b5b6040519080825280602002602001820160405280156107505781602001602082028036833780820191505090505b5090506000600260008873ffffffffffffffffffffffffffffffffffffffff1673ffffffffffffffffffffffffffffffffffffffff1681526020019081526020016000208054905067ffffffffffffffff8111156107b1576107b0611452565b5b6040519080825280602002602001820160405280156107df5781602001602082028036833780820191505090505b50905060005b600260008973ffffffffffffffffffffffffffffffffffffffff1673ffffffffffffffffffffffffffffffffffffffff168152602001908152602001600020805490508110156109b9576000600260008a73ffffffffffffffffffffffffffffffffffffffff1673ffffffffffffffffffffffffffffffffffffffff168152602001908152602001600020828154811061088257610881611c19565b5b90600052602060002001549050600381815481106108a3576108a2611c19565b5b90600052602060002090600a020160080160008a73ffffffffffffffffffffffffffffffffffffffff1673ffffffffffffffffffffffffffffffffffffffff1681526020019081526020016000205484838151811061090557610904611c19565b5b6020026020010181815250506003818154811061092557610924611c19565b5b90600052602060002090600a02016006015484838151811061094a57610949611c19565b5b602002602001015161095c9190612086565b600382815481106109705761096f611c19565b5b90600052602060002090600a02016007015461098c91906120b7565b83838151811061099f5761099e611c19565b5b6020026020010181815250505080806001019150506107e5565b508282829550955095505050509193909250565b600560009054906101000a900473ffffffffffffffffffffffffffffffffffffffff1673ffffffffffffffffffffffffffffffffffffffff163373ffffffffffffffffffffffffffffffffffffffff1614610a5d576040517f08c379a0000000000000000000000000000000000000000000000000000000008152600401610a5490612145565b60405180910390fd5b8060038481548110610a7257610a71611c19565b5b90600052602060002090600a02016006016000828254610a929190612165565b925050819055508060038481548110610aae57610aad611c19565b5b90600052602060002090600a020160080160008473ffffffffffffffffffffffffffffffffffffffff1673ffffffffffffffffffffffffffffffffffffffff1681526020019081526020016000206000828254610b0b9190612165565b9250508190555060038381548110610b2657610b25611c19565b5b90600052602060002090600a0201600901829080600181540180825580915050600190039060005260206000200160009091909190916101000a81548173ffffffffffffffffffffffffffffffffffffffff021916908373ffffffffffffffffffffffffffffffffffffffff160217905550600260008373ffffffffffffffffffffffffffffffffffffffff1673ffffffffffffffffffffffffffffffffffffffff168152602001908152602001600020839080600181540180825580915050600190039060005260206000200160009091909190915055505050565b6000600360045481548110610c1b57610c1a611c19565b5b90600052602060002090600a0201905088816000019081610c3c9190611e4a565b5087816001019081610c4e9190611e4a565b50858160020160006101000a81548173ffffffffffffffffffffffffffffffffffffffff021916908373ffffffffffffffffffffffffffffffffffffffff160217905550848160020160146101000a81548160ff02191690836004811115610cb957610cb8611740565b5b021790555086816003019081610ccf9190611e4a565b508381600401819055508281600501819055508181600601819055506000816007018190555080600901869080600181540180825580915050600190039060005260206000200160009091909190916101000a81548173ffffffffffffffffffffffffffffffffffffffff021916908373ffffffffffffffffffffffffffffffffffffffff160217905550818160080160008873ffffffffffffffffffffffffffffffffffffffff1673ffffffffffffffffffffffffffffffffffffffff1681526020019081526020016000206000828254610dab9190612165565b9250508190555060046000815480929190610dc590612199565b9190505550505050505050505050565b610ddd6111fa565b60008111610e20576040517f08c379a0000000000000000000000000000000000000000000000000000000008152600401610e1790611f68565b60405180910390fd5b610e6d3330837f000000000000000000000000000000000000000000000000000000000000000073ffffffffffffffffffffffffffffffffffffffff166112c9909392919063ffffffff16565b80600160003373ffffffffffffffffffffffffffffffffffffffff1673ffffffffffffffffffffffffffffffffffffffff1681526020019081526020016000206000828254610ebc9190612165565b92505081905550610ecb6112bf565b50565b600060038281548110610ee457610ee3611c19565b5b90600052602060002090600a02016005015484610f0191906120b7565b60038381548110610f1557610f14611c19565b5b90600052602060002090600a02016004015486610f3291906120b7565b610f3c9190612165565b905080600160008573ffffffffffffffffffffffffffffffffffffffff1673ffffffffffffffffffffffffffffffffffffffff168152602001908152602001600020541015610fc0576040517f08c379a0000000000000000000000000000000000000000000000000000000008152600401610fb79061222d565b60405180910390fd5b80600160008573ffffffffffffffffffffffffffffffffffffffff1673ffffffffffffffffffffffffffffffffffffffff168152602001908152602001600020600082825461100f9190612023565b92505081905550806003838154811061102b5761102a611c19565b5b90600052602060002090600a0201600701600082825461104b9190612165565b9250508190555060005b6003838154811061106957611068611c19565b5b90600052602060002090600a0201600901805490508110156111f25760006003848154811061109b5761109a611c19565b5b90600052602060002090600a020160090182815481106110be576110bd611c19565b5b9060005260206000200160009054906101000a900473ffffffffffffffffffffffffffffffffffffffff16905060006003858154811061110157611100611c19565b5b90600052602060002090600a0201600601546003868154811061112757611126611c19565b5b90600052602060002090600a020160080160008473ffffffffffffffffffffffffffffffffffffffff1673ffffffffffffffffffffffffffffffffffffffff168152602001908152602001600020546111809190612086565b8461118b91906120b7565b905080600160008473ffffffffffffffffffffffffffffffffffffffff1673ffffffffffffffffffffffffffffffffffffffff16815260200190815260200160002060008282546111dc9190612165565b9250508190555050508080600101915050611055565b505050505050565b600260005403611236576040517f3ee5aeb500000000000000000000000000000000000000000000000000000000815260040160405180910390fd5b6002600081905550565b6112ba838473ffffffffffffffffffffffffffffffffffffffff1663a9059cbb858560405160240161127392919061224d565b604051602081830303815290604052915060e01b6020820180517bffffffffffffffffffffffffffffffffffffffffffffffffffffffff838183161783525050505061134b565b505050565b6001600081905550565b611345848573ffffffffffffffffffffffffffffffffffffffff166323b872dd8686866040516024016112fe93929190612276565b604051602081830303815290604052915060e01b6020820180517bffffffffffffffffffffffffffffffffffffffffffffffffffffffff838183161783525050505061134b565b50505050565b600080602060008451602086016000885af18061136e576040513d6000823e3d81fd5b3d9250600051915050600082146113895760018114156113a5565b60008473ffffffffffffffffffffffffffffffffffffffff163b145b156113e757836040517f5274afe70000000000000000000000000000000000000000000000000000000081526004016113de91906122ad565b60405180910390fd5b50505050565b6000604051905090565b600080fd5b600080fd5b6000819050919050565b61141481611401565b811461141f57600080fd5b50565b6000813590506114318161140b565b92915050565b600080fd5b600080fd5b6000601f19601f8301169050919050565b7f4e487b7100000000000000000000000000000000000000000000000000000000600052604160045260246000fd5b61148a82611441565b810181811067ffffffffffffffff821117156114a9576114a8611452565b5b80604052505050565b60006114bc6113ed565b90506114c88282611481565b919050565b600067ffffffffffffffff8211156114e8576114e7611452565b5b6114f182611441565b9050602081019050919050565b82818337600083830152505050565b600061152061151b846114cd565b6114b2565b90508281526020810184848401111561153c5761153b61143c565b5b6115478482856114fe565b509392505050565b600082601f83011261156457611563611437565b5b813561157484826020860161150d565b91505092915050565b60008060408385031215611594576115936113f7565b5b60006115a285828601611422565b925050602083013567ffffffffffffffff8111156115c3576115c26113fc565b5b6115cf8582860161154f565b9150509250929050565b6000602082840312156115ef576115ee6113f7565b5b60006115fd84828501611422565b91505092915050565b600073ffffffffffffffffffffffffffffffffffffffff82169050919050565b6000819050919050565b600061164b61164661164184611606565b611626565b611606565b9050919050565b600061165d82611630565b9050919050565b600061166f82611652565b9050919050565b61167f81611664565b82525050565b600060208201905061169a6000830184611676565b92915050565b600081519050919050565b600082825260208201905092915050565b60005b838110156116da5780820151818401526020810190506116bf565b60008484015250505050565b60006116f1826116a0565b6116fb81856116ab565b935061170b8185602086016116bc565b61171481611441565b840191505092915050565b600061172a82611606565b9050919050565b61173a8161171f565b82525050565b7f4e487b7100000000000000000000000000000000000000000000000000000000600052602160045260246000fd5b600581106117805761177f611740565b5b50565b60008190506117918261176f565b919050565b60006117a182611783565b9050919050565b6117b181611796565b82525050565b6117c081611401565b82525050565b60006101208201905081810360008301526117e1818c6116e6565b905081810360208301526117f5818b6116e6565b9050611804604083018a611731565b61181160608301896117a8565b818103608083015261182381886116e6565b905061183260a08301876117b7565b61183f60c08301866117b7565b61184c60e08301856117b7565b61185a6101008301846117b7565b9a9950505050505050505050565b6118718161171f565b811461187c57600080fd5b50565b60008135905061188e81611868565b92915050565b6000602082840312156118aa576118a96113f7565b5b60006118b88482850161187f565b91505092915050565b600081519050919050565b600082825260208201905092915050565b6000819050602082019050919050565b6118f681611401565b82525050565b600061190883836118ed565b60208301905092915050565b6000602082019050919050565b600061192c826118c1565b61193681856118cc565b9350611941836118dd565b8060005b8381101561197257815161195988826118fc565b975061196483611914565b925050600181019050611945565b5085935050505092915050565b600060608201905061199460008301866117b7565b81810360208301526119a68185611921565b905081810360408301526119ba8184611921565b9050949350505050565b6000806000606084860312156119dd576119dc6113f7565b5b60006119eb86828701611422565b93505060206119fc8682870161187f565b9250506040611a0d86828701611422565b9150509250925092565b60058110611a2457600080fd5b50565b600081359050611a3681611a17565b92915050565b600080600080600080600080610100898b031215611a5d57611a5c6113f7565b5b600089013567ffffffffffffffff811115611a7b57611a7a6113fc565b5b611a878b828c0161154f565b985050602089013567ffffffffffffffff811115611aa857611aa76113fc565b5b611ab48b828c0161154f565b975050604089013567ffffffffffffffff811115611ad557611ad46113fc565b5b611ae18b828c0161154f565b9650506060611af28b828c0161187f565b9550506080611b038b828c01611a27565b94505060a0611b148b828c01611422565b93505060c0611b258b828c01611422565b92505060e0611b368b828c01611422565b9150509295985092959890939650565b60008060008060808587031215611b6057611b5f6113f7565b5b6000611b6e87828801611422565b9450506020611b7f87828801611422565b9350506040611b908782880161187f565b9250506060611ba187828801611422565b91505092959194509250565b7f4f6e6c792061646d696e2063616e2075706461746520766563746f7220444200600082015250565b6000611be3601f836116ab565b9150611bee82611bad565b602082019050919050565b60006020820190508181036000830152611c1281611bd6565b9050919050565b7f4e487b7100000000000000000000000000000000000000000000000000000000600052603260045260246000fd5b7f4e487b7100000000000000000000000000000000000000000000000000000000600052602260045260246000fd5b60006002820490506001821680611c8f57607f821691505b602082108103611ca257611ca1611c48565b5b50919050565b60008190508160005260206000209050919050565b60006020601f8301049050919050565b600082821b905092915050565b600060088302611d0a7fffffffffffffffffffffffffffffffffffffffffffffffffffffffffffffffff82611ccd565b611d148683611ccd565b95508019841693508086168417925050509392505050565b6000611d47611d42611d3d84611401565b611626565b611401565b9050919050565b6000819050919050565b611d6183611d2c565b611d75611d6d82611d4e565b848454611cda565b825550505050565b600090565b611d8a611d7d565b611d95818484611d58565b505050565b5b81811015611db957611dae600082611d82565b600181019050611d9b565b5050565b601f821115611dfe57611dcf81611ca8565b611dd884611cbd565b81016020851015611de7578190505b611dfb611df385611cbd565b830182611d9a565b50505b505050565b600082821c905092915050565b6000611e2160001984600802611e03565b1980831691505092915050565b6000611e3a8383611e10565b9150826002028217905092915050565b611e53826116a0565b67ffffffffffffffff811115611e6c57611e6b611452565b5b611e768254611c77565b611e81828285611dbd565b600060209050601f831160018114611eb45760008415611ea2578287015190505b611eac8582611e2e565b865550611f14565b601f198416611ec286611ca8565b60005b82811015611eea57848901518255600182019150602085019450602081019050611ec5565b86831015611f075784890151611f03601f891682611e10565b8355505b6001600288020188555050505b505050505050565b7f616d6f756e74203d203000000000000000000000000000000000000000000000600082015250565b6000611f52600a836116ab565b9150611f5d82611f1c565b602082019050919050565b60006020820190508181036000830152611f8181611f45565b9050919050565b7f696e73756666696369656e742062616c616e6365000000000000000000000000600082015250565b6000611fbe6014836116ab565b9150611fc982611f88565b602082019050919050565b60006020820190508181036000830152611fed81611fb1565b9050919050565b7f4e487b7100000000000000000000000000000000000000000000000000000000600052601160045260246000fd5b600061202e82611401565b915061203983611401565b925082820390508181111561205157612050611ff4565b5b92915050565b7f4e487b7100000000000000000000000000000000000000000000000000000000600052601260045260246000fd5b600061209182611401565b915061209c83611401565b9250826120ac576120ab612057565b5b828204905092915050565b60006120c282611401565b91506120cd83611401565b92508282026120db81611401565b915082820484148315176120f2576120f1611ff4565b5b5092915050565b7f4f6e6c792061646d696e2063616e20636f6e7472696275746500000000000000600082015250565b600061212f6019836116ab565b915061213a826120f9565b602082019050919050565b6000602082019050818103600083015261215e81612122565b9050919050565b600061217082611401565b915061217b83611401565b925082820190508082111561219357612192611ff4565b5b92915050565b60006121a482611401565b91507fffffffffffffffffffffffffffffffffffffffffffffffffffffffffffffffff82036121d6576121d5611ff4565b5b600182019050919050565b7f496e73756666696369656e74207669727475616c2062616c616e636500000000600082015250565b6000612217601c836116ab565b9150612222826121e1565b602082019050919050565b600060208201905081810360008301526122468161220a565b9050919050565b60006040820190506122626000830185611731565b61226f60208301846117b7565b9392505050565b600060608201905061228b6000830186611731565b6122986020830185611731565b6122a560408301846117b7565b949350505050565b60006020820190506122c26000830184611731565b9291505056fea264697066735822122091edbcd9bce3be7b39ec06da0f3b4615a37bf221a33e4ebe241619511c5f344164736f6c634300081c0033",
  "linkReferences": {},
  "deployedLinkReferences": {}
}